:100000000C94BB010C94CD010C94CD010C94C52E25
:100010000C94B52B0C94CD010C94CD010C94CD0116
:100020000C94CD010C94CD010C94CD010C948A322A
:100030000C94CD010C94CD010C94CD010C94CD0108
:100040000C943E320C94CD010C9483030C94130257
:100050000C94CD010C94CD010C94CD010C94CD01E8
:100060000C94CD010C94CD01B903BB03F403F4034C
:10007000F403F403F403F403F403F403F403F403C8
:10008000C103C303C503C703C903CB03CD03CF0318
:10009000F403D303D503D703D903DB03DD03F40350
:1000A000DF03C908CF08D208D508DA08E208EA0851
:1000B000850985098509F708FA0803090C098509E6
:1000C00085098509850985098509180922092E09E7
:1000D0003609390942094B095109850985095A0927
:1000E00063096E099F0B32173217A90BB40BBF0BB4
:1000F000CA0B3217CE0B3217DC0B3217E60BF00BA4
:10010000FA0B3217321732170A0C170C240C084A54
:10011000D73B3BCE016E84BCBFFDC12F3D6C74311B
:100120009ABD56833DDA3D00C77F11BED9E4BB4C72
:100130003E916BAAAABE000000803F05A84CCDB23C
:10014000D44EB93836A9020C50B9918688083CA61D
:10015000AAAA2ABE000000803F000D0A4772626C06
:1001600020312E3168205B27242720666F7220689B
:10017000656C705D0D0A00244E005B4F50543A00D0
:100180005B5645523A312E31682E32303139303893
:1001900032353A005B544C4F3A005B4739323A00F3
:1001A0003330003238005B4700204700204D0020EC
:1001B000530020460020540033382E005B47433A5A
:1001C00047005B484C503A24242024232024472015
:1001D000244920244E2024783D76616C20244E78DA
:1001E0003D6C696E6520244A3D6C696E6520245320
:1001F0004C50202443202458202448207E202120B5
:100200003F206374726C2D785D0D0A00536C656538
:1002100070696E6700526573746F72696E672073E0
:1002200070696E646C6500526573746F72696E6795
:100230002064656661756C74730050676D20456E4F
:100240006400436865636B204C696D697473004397
:100250006865636B20446F6F720044697361626C00
:10026000656400456E61626C656400436175746924
:100270006F6E3A20556E6C6F636B6564002724487F
:10028000277C2724582720746F20756E6C6F636B52
:1002900000526573657420746F20636F6E74696EAD
:1002A0007565005B4D53473A00414C41524D3A0051
:1002B0007C413A007C4F763A007C57434F3A007CB1
:1002C000506E3A007C46533A007C42663A007C57B6
:1002D000506F733A007C4D506F733A00536C6565F4
:1002E0007000446F6F723A00436865636B00416C45
:1002F00061726D00486F6D65004A6F6700486F6CF2
:10030000643A0052756E0049646C650000007A43DF
:1003100000007A4300007A430000FA430000FA43E9
:100320000000FA4300A00C4700A00C4700A00C47B7
:10033000000048C3000048C3000048C30A00001979
:10034000010AD7233C6F12033B00007A44000000EF
:100350000000000000C8410000FA43FA00000080DD
:100360003F0D0A005B5052423A006572726F723A5A
:10037000006F6B0D0A0011241FBECFEFD8E0DEBF67
:10038000CDBF27E0A0E0B1E001C01D92A136B207C9
:10039000E1F70E9468040C946E3A0C940000CF932D
:1003A000DF93239AC0EBD0E083E0888384E08093DE
:1003B000B100259A20915C0230915D0240915E026D
:1003C00050915F02609158027091590280915A02D7
:1003D00090915B020E949E359B01AC0160E070E051
:1003E0008EE793E40E949E366093000170930101B2
:1003F000809302019093030188818F778883DF9136
:10040000CF9108950E94CA1C0E94B61B80910B02D6
:10041000811108C00E94671D892BB1F780910A02E3
:10042000883091F308951F920F920FB60F92112406
:100430008F939F93EF93FF9380916E01E82FF0E0ED
:10044000EB5FFE4F90819093C6008F5F893609F471
:1004500080E080936E0190910401891305C0809122
:10046000C1008F7D8093C100FF91EF919F918F918B
:100470000F900FBE0F901F901895E091040191E02E
:100480009E0F993631F490E004C020910D0724FDB1
:100490000FC020916E012917C1F3F0E0EB5FFE4F12
:1004A0008083909304018091C10080628093C10099
:1004B000089590910B02911107C086FF02C0439AE4
:1004C00001C043981092150208954F925F926F9267
:1004D0007F928F929F92AF92BF92CF92DF92EF92D4
:1004E000FF926B017C0180905C0290905D02A09075
:1004F0005E02B0905F0240905802509059026090A6
:100500005A0270905B02A3019201C501B4010E94DE
:10051000B63887FF19C06091130270E080E090E068
:100520000E9448372AE037ED43E25CE30E94F63848
:10053000A70196010E94F6386B017C01A30192018C
:100540000E94B63887FD0AC04092170250921802E6
:100550006092190270921A028FEF47C0A5019401B0
:10056000C701B6010E9494361816E4F020E030E08E
:10057000A901C701B6010E949436811109C01092E9
:100580001702109218021092190210921A022DC02E
:100590008092170290921802A0921902B0921A0249
:1005A00081E023C0C0921702D0921802E092190293
:1005B000F0921A02A5019401C701B6010E949E356E
:1005C00020910001309101014091020150910301FD
:1005D0000E94F6380E94833720E030E040E85FE375
:1005E0000E949F350E941737862FFF90EF90DF9073
:1005F000CF90BF90AF909F908F907F906F905F90C3
:100600004F9008958093B300811104C08091B00091
:100610008F7703C08091B00080688093B000089508
:1006200090910B02911126C081110EC010921702F9
:10063000109218021092190210921A028091B000C2
:100640008F778093B00014C0803111F42D9801C0D1
:100650002D9A9091600291FF05C0803219F440E01C
:1006600050E0BA01CB01BA010E9465020E94020368
:10067000109215020895CF92DF92EF92FF92CF93DE
:1006800090910A02923079F06A017B01C82F0E9492
:100690000202B701A6018C2FCF91FF90EF90DF905F
:1006A000CF900C941003CF91FF90EF90DF90CF90FC
:1006B000089561EF71E088E892E00C94622B8091DC
:1006C0000D0784FD1FC080E10E941E2B8091B000A9
:1006D0008F778093B000439890910A02892F8C7293
:1006E00021F480910E02867069F0943031F480918B
:1006F0000E07811105C086E001C083E00E940E2B29
:100700000C94543208951F920F920FB60F92112439
:100710002F933F934F935F936F937F938F939F9309
:10072000AF93BF93EF93FF93E091C600E13271F076
:1007300028F4E83179F40E945F0356C0EF3321F0CA
:10074000EE3741F482E003C081E001C088E00E94FE
:100750001E2B4AC0E7FF37C08E2F90E0FC01E45803
:10076000F109ED31F10508F03FC0EC5CFF4F0C944E
:10077000413A80E2ECCF80910A0285FF35C080E4E7
:10078000E6CF81E00DC082E00BC084E009C088E0C4
:1007900007C080E105C080E203C080E401C080E8BA
:1007A0000E94052B21C081E00BC082E009C084E0DB
:1007B00007C088E005C080E103C080E201C080E49A
:1007C0000E94FC2A11C0A091EA0281E08A0F8138C0
:1007D00009F480E09091EB02891731F0B0E0A15963
:1007E000BE4FEC938093EA02FF91EF91BF91AF91DE
:1007F0009F918F917F916F915F914F913F912F9139
:100800000F900FBE0F901F901895FF920F931F939C
:10081000CF93DF938C01EB018091600285FF26C0AE
:10082000F0900A0280E2F81629F1C8010E94272BF5
:100830008823E1F081E080930D0288E0F81641F012
:100840000E945F0382E00E940E2B0E94B61B0EC026
:1008500088E00E941E2B0E94B61B80910B02811122
:1008600005C080910A028111F6CFEACF80910A0279
:10087000823041F10E94B61B80910B02811122C08F
:100880009091CA038091C903981303C00E94CA1CA7
:10089000F1CFBE01C8010E94DA27811113C08091F7
:1008A000600281FF0FC0888584FF0CC04C815D8190
:1008B0006E817F8180E1DF91CF911F910F91FF9039
:1008C0000C943B03DF91CF911F910F91FF900895FE
:1008D000CF93DF93CDB7DEB761970FB6F894DEBF45
:1008E0000FBECDBF8091C00082608093C000109287
:1008F000C50080E18093C4008091C1008869809325
:10090000C10080E090E00E94431E8A3009F038C5A3
:1009100045E550E061E070E08BE192E00E944B1E03
:10092000892B09F42DC58AB18C618AB9209A8AB1C4
:10093000806E8AB9809181008F7E80938100809142
:100940008100886080938100809180008C7F8093FB
:100950008000809180008F708093800080916E0075
:10096000887F80936E0014BC15BC80916E008160FE
:1009700080936E0087B1887F87B988B1876088B916
:1009800080916C00876080936C0080916800826029
:10099000809368008CE0E1EFF1E0DF011D928A9521
:1009A000E9F7789410920A028091600284FF03C0F4
:1009B00081E080930A02AAE02A2EA2E03A2E99242E
:1009C000939480910A0291E1F10111929A95E9F7CD
:1009D00080930A0284E6809311028093120280932E
:1009E00013028CE0ADEFB1E01D928A95E9F7109209
:1009F000090210920D0710920E0710920F07109225
:100A000010078091EA028093EB0280E4E0E7F2E0D5
:100A100011928A95E9F764E972E080E00E948F1EE6
:100A2000811103C087E00E940E2D0E94CF013B9AE6
:100A300043980E940F313D98459A80E00E94EF2B29
:100A40000E94771D0E949A2A0E9412320E94590326
:100A50008AE591E00E94FB2C8091600283FF10C028
:100A60000E94F42E882361F090920A0283EA92E0B9
:100A70000E94FB2C82E492E00E94FB2C0E94962EA6
:100A800080910A02817899F083EA92E00E94FB2C1F
:100A90008DE792E00E94FB2C0E94962E90920A0213
:100AA00010E000E0E2E0EE2EF4E08F2E29C010927C
:100AB0000A020E94222DF4CFE92FF0E0E159FE4F07
:100AC00080819F5F913809F490E09093EB028F3F13
:100AD000E9F08A3021F50E94B61B80910B0281114A
:100AE00070CFE12FF0E0EF5EF84F1082F02FF17041
:100AF000FF2E00FF18C08BE00E940E2D10E000E0DA
:100B00009091EB028091EA029813D6CF0E94CA1C02
:100B10000E94B61B80910B02882391F352CF8D3037
:100B200009F008C4D8CF80911107882309F4FFC3C6
:100B3000843209F0F4C3998A80911207833409F151
:100B400034F4882361F0843209F006C11AC08A3473
:100B500059F08835B1F0873409F0FEC012C082EC3C
:100B600091E00E94FB2CD9C380910A028F7D09F08D
:100B7000C4C3809113078D3309F0C7C30E94C9090C
:100B8000BFC3909113079111C0C3833409F4B2C05D
:100B90001CF4843239F0C1C3873469F0883509F414
:100BA000C9C0BBC380910A028871F82E09F0A5C3A1
:100BB0000E94842DB2C38CEB91E00E94FB2C8091AB
:100BC00070028C3838F088EB91E00E94FB2C809109
:100BD00070028A580E94D52C89EA91E00E94FB2C71
:100BE000809176028A5C0E94D52C89EA91E00E946D
:100BF000FB2C809174028F5E0E94D52C89EA91E0D3
:100C00000E94FB2C8091720225E1281B822F0E94FA
:100C1000D52C89EA91E00E94FB2C80917302865AC0
:100C20000E94D52C89EA91E00E94FB2C80917102F0
:100C30009EE5981B892F0E94D52C809177028823EE
:100C400099F08CEA91E00E94FB2C8091770283302E
:100C500029F08E3139F0823039F404C080E30E94EB
:100C60003D0202C00E94D52C8CEA91E00E94FB2C30
:100C700080917902803131F0803231F0811107C0EA
:100C800085E303C083E301C084E30E943D028CEA54
:100C900091E00E94FB2C80917802882311F088E378
:100CA00001C089E30E943D0285EB91E00E94FB2C8C
:100CB000809183020E94D52C82EB91E00E94FB2C54
:100CC00060917F02709180028091810290918202F6
:100CD0000E949E2C8FEA91E00E94FB2C60917B0287
:100CE00070917C0280917D0290917E0240E00E9492
:100CF000012C0EC080910A02823069F40E945F03C9
:100D000083EA92E00E94FB2C8AE592E00E94FB2C91
:100D10000E94962E02C38111F0C2E0920A0283EA79
:100D200092E00E94FB2C83E692E00E94FB2C0E9442
:100D3000962E3BC080910A02813009F0EEC283EA10
:100D400092E00E94FB2C8BE692E00E94FB2C0E941A
:100D5000962E10920A02E1C290910A02923008F097
:100D6000CCC2893409F49FC034F4833271F08834E2
:100D700009F45AC041C1823509F4E8C0833509F449
:100D800080C08E3409F038C111C1809113078111E0
:100D9000BCC210E0BE016F5F7F4F812F0E948F1E8B
:100DA000811105C087E00E940E2DF12CB6C286EAA3
:100DB00091E00E94FB2C163029F0173041F480EAB4
:100DC00091E002C083EA91E00E94FB2C04C086E31C
:100DD000810F0E94D52C8AE30E943D02CE0101962C
:100DE0000E94BC2C0E94962E1F5F183099F68AE94B
:100DF00091E00E94FB2C80EA92E00E94BC2C0E94B1
:100E0000962E84E991E00E94FB2C6091AC027091D7
:100E1000AD028091AE029091AF020E94AD2C0E9473
:100E2000962E0E949B2E79C28091600284FF62C23E
:100E300080920A0280911307811167C20E940431D7
:100E400084E00E94092F83E00E94092F0E94B61BB4
:100E500080910B02811106C00E9459030E94123238
:100E60000E940F3180910B02811157C210920A0229
:100E70000E9454328091130781114FC20E94222D8B
:100E800094CF809113078C3409F03FC280911407EE
:100E9000803509F03AC280911507811136C280E889
:100EA0000E941E2B3AC2E98A80911307811130C03B
:100EB00040E550E06EEA73E081E197E00E944B1E4E
:100EC000892B51F41092110740E550E061E177E081
:100ED0008EEA93E00E94881D80E891E00E94FB2C3E
:100EE0000E94CD2A0E94962E8AE791E00E94FB2C58
:100EF00086E50E943D028CE20E943D028FE00E9446
:100F0000D52C8CE20E943D0280E80E94D52C00CFB7
:100F1000A3E0A98B8D3309F0F8C183E0282F30E0DE
:100F2000F901EF5EF84F9081D901A25FB84F9C9311
:100F30008F5F90819111F2CF898B40E550E061E1A4
:100F400077E08EEA93E00E94881DE7C18091130745
:100F5000833509F0DAC180911407843509F0D5C1D1
:100F6000809115078D3309F0D0C180911707811149
:100F7000CCC180911607843239F08A3239F083323D
:100F800009F0C3C182E003C081E001C08FEF0E947D
:100F9000E61D83EA92E00E94FB2C87E292E00E9429
:100FA000FB2C0E94962E0E945F03B7C1E98A8091B4
:100FB000130781111DC010E0812F0E94DA2A8111D0
:100FC00004C087E00E940E2D0EC087E791E00E94CA
:100FD000FB2C812F0E94D52C8DE30E943D020E94A4
:100FE000CD2A0E940A2D1F5F123009F496C1E4CF6A
:100FF000911183C111E001C010E0BE01635F7F4F1A
:10100000CE0141960E94EA34811103C072E0F72EAE
:1010100084C1E98981E08E0F898BF0E0EF5EF84FA3
:1010200090819D3309F071C1112371F1482F50E077
:10103000282F30E0F901EF5EF84F9081241B350B2B
:10104000D901AF5EB84F9C938F5F90819111F0CF23
:10105000898B0E94C909811153C16D857E858F8559
:1010600098890E94D9390E941737162F0E940202D0
:10107000B1E51B9FC001112440E550E061E177E03C
:101080009D5F0E94881D91CEBE016F5F7F4FCE0194
:1010900041960E94EA34882309F4B8CFE989F0E048
:1010A000EF5EF84F8081811130C1AD84BE84CF8462
:1010B000D88820E030E04FE753E4C601B5010E9434
:1010C000B63818160CF421C149805A806B807C8098
:1010D000C601B5010E941737062F20E030E0A901B4
:1010E000C301B2010E94943687FD0CC1043608F496
:1010F00040C0045680E0033098F510E0000F111F47
:10110000000F111F823079F0F801833011F1813026
:1011100019F0E55EFD4F02C0E95DFD4F408251824E
:1011200062827382E4C00D5C1D4F20E030E040E736
:1011300052E4C301B2010E94F63820E030E040E7FB
:1011400052E40E94F638F8016083718382839383AE
:10115000CEC0E15CFD4F77FA709477F87094DECFE3
:101160008F5F0A3008F4D1C0843009F4CEC00A5031
:10117000C2CFC301B2010E94D9390E94173710E0D3
:101180000132110508F0C1C0F801EF5AFF4F0C946D
:10119000413A633008F4BCC060934B02A8C060932E
:1011A0004E02A5C060934C0202C060934D020E94A3
:1011B00023329DC080916002662311F0846095C047
:1011C0008B7F93C080916002662311F080648DC094
:1011D0008F7B8BC080916002662311F0806801C014
:1011E0008F778093600280E00E94EF2B80C0609335
:1011F0004F027DC0409250025092510260925202C2
:101200007092530274C04092540250925502609200
:101210005602709257026BC080916002662311F0F3
:10122000816001C08E7F809360020E949E2B5FC010
:1012300080916002662321F084FF6DC0806255C0FA
:101240008F7D53C080916002662311F0886001C0D9
:10125000877F809360020E940F3149C080916002B5
:10126000662311F0806141C08F7C3FC060936102B2
:101270003EC0409262025092630260926402709299
:10128000650235C040926602509267026092680221
:10129000709269022CC070E070936B0260936A02D6
:1012A00026C040926C0250926D0260926E02709263
:1012B0006F021DC0409258025092590260925A0229
:1012C00070925B0208C040925C0250925D02609294
:1012D0005E0270925F020E94CF0109C0809160029D
:1012E000662311F0826001C08D7F809360020E94AE
:1012F000C51D13C055E0F52E10C048E0F42E0DC0FA
:10130000F82E0BC034E0F32E08C023E0F22E05C007
:1013100096E0F92E02C08AE0F82E8F2D08C0809149
:101320000A02817211F089E0E7CB0E94C9090E948C
:101330001A2DE4CB002329F0893209F0E1CB0D7F8F
:10134000DFCB813208F4DCCB8F3209F4D9CB883281
:1013500089F08B3389F01F3488F4212F30E01F5F30
:101360009FE9980FF901EF5EF84F9A3108F4805227
:101370008083C6CB02E0C4CB04E0C2CB01E0C0CB8B
:1013800087E00E940E2D8FEF0E94E61D0E94842DA3
:10139000CACA2F923F924F925F926F927F928F9222
:1013A0009F92AF92BF92CF92DF92EF92FF920F93F4
:1013B0001F93CF93DF93CDB7DEB7CA54D1090FB6D1
:1013C000F894DEBF0FBECDBF8AE3E0EBF2E0DF01B1
:1013D0001D928A95E9F78BE0E0E7F2E0A1EBB2E03D
:1013E00001900D928A95E1F780911107843211F0F6
:1013F0000C94531781E08093B1021092B20283E003
:101400008A8FB1E0BBA3212C312C1CA61BA610E0B7
:101410001B8E1F8EEE24E394F12CEAE0AE2EB12C4D
:10142000F1E68F2EF3E09F2E8A8DE82FF0E0EF5E3D
:10143000F84FD080DD2009F437C29FEB9D0D9A3123
:1014400010F00C9422178F5F8A8FBE016A5E7F4F67
:10145000CE014A960E94EA34882311F40C94241792
:101460004E885F88688C798CC301B2010E94D9399B
:101470000E941737062F70E080E090E00E94483706
:101480009B01AC01C301B2010E949E3520E030E017
:1014900048EC52E40E94F6380E9463390E941737E4
:1014A000CB01E7E4DE1629F0FDE4DF1609F4EAC01B
:1014B00035C1083209F4C6C020F5043168F40131A1
:1014C00008F08AC0043009F452C008F464C00A303D
:1014D00009F445C00C9432170C3109F440C050F4A3
:1014E000063110F00C94321725E1201B2093B30233
:1014F00026E0ADC00E3199F1063209F44CC00C94CF
:1015000032170D3309F498C0A8F4053381F140F483
:101510000B3209F47AC0013309F477C00C94321706
:101520000C3310F00C9432176AEC600F6093B70222
:1015300029E08DC00C3538F40A3508F053C0003569
:1015400081F10C9432170C3551F00F3510F00C94DA
:1015500032172EE5201B2093B20225E078C00097B9
:1015600031F42F8D21110C94261731E03F8F009319
:10157000B002202F2D7F2C3119F00C3509F064C0FA
:10158000009721F00A9711F00C943217600F6093C6
:10159000B00220E061C04F8D41110C942617A2E0EB
:1015A000AF8F0093B102063209F050C0843191052B
:1015B00059F08E31910541F08832910529F082333E
:1015C000910511F00C943217B5010E940B3A665741
:1015D0006093B10221E040C06FEE600F6093B502EE
:1015E00022E035C0892B31F466EA600F6093B402C3
:1015F00023E032C06A30710511F00C9432170A35BD
:1016000011F40C94321724E027C0BF8DB1110C9453
:101610002617013331F41092B60228E0E3E0EF8F91
:101620001BC00A9711F00C943217F1E0F093B60248
:1016300028E033E03F8F10C0892B11F00C94321753
:101640002AE00AC027E003C020E001C021E0892B86
:1016500019F087E10C945A17C70102C0880F991F2F
:101660002A95E2F72BA53CA528233923232B19F033
:1016700085E10C945A17ABA5BCA5A82BB92BBCA728
:10168000ABA7D2CE892B29F7063018F4033058F0D7
:1016900016C0083010F40C9432170A30F0F00E31F6
:1016A00059F00C943217002319F0013011F104C0E5
:1016B000B3E0B093B8021DC00093B8021AC0043062
:1016C00021F0053031F080E101C080E28093BA0260
:1016D00002C01092BA028CE00DC0093031F0809146
:1016E000B90280648093B90202C01092B9028DE001
:1016F00001C08BE0F70102C0EE0FFF1F8A95E2F7F1
:101700002BA53CA52E233F23232B09F0B1CF2BA5DE
:101710003CA52E2B3F2B3CA72BA786CE8D2DDD0C79
:10172000990BAA0BBB0BFC01E654F109E531F1055D
:1017300010F00C943217EE58FF4F0C94413A40923F
:10174000BC025092BD026092BE027092BF0280E065
:1017500087C04092C0025092C1026092C202709251
:10176000C302116081E07CC04092C4025092C50265
:101770006092C6027092C702126082E071C040920D
:10178000C8025092C9026092CA027092CB021460E1
:1017900083E066C00093CC0284E062C0C301B20162
:1017A0000E9410376093CD027093CE028093CF02D7
:1017B0009093D00285E054C04092D1025092D20260
:1017C0006092D3027092D40286E04AC04092D50261
:1017D0005092D6026092D7027092D80287E040C041
:1017E0004092D9025092DA026092DB027092DC02DF
:1017F00088E036C020E030E04FE753E4C301B20197
:101800000E94B638181614F40C9428170093DD02C1
:1018100089E026C04092DE025092DF026092E00230
:101820007092E1023B8D31603B8F8AE019C040929B
:10183000E2025092E3026092E4027092E5024B8D64
:1018400042604B8F8BE00CC04092E6025092E70260
:101850006092E8027092E9028B8D84608B8F8CE03D
:101860006701082E02C0CC0CDD1C0A94E2F7960139
:1018700022213321232B11F00C942A17D40102C00A
:10188000B595A7958A95E2F7A0FF0BC020E030E060
:10189000A901C301B2010E94943687FF02C00C94D3
:1018A0002C172C283D28C0CDBB8DBB2329F0EF8DF4
:1018B000E11102C0F2E0FF8F25FE0FC08091CD0242
:1018C0009091CE02A091CF02B091D002813896497A
:1018D000A849B10514F00C942E173BA1332329F02D
:1018E00020FC02C00C94381718C08091B2028130DD
:1018F00071F44F8D4230E1F58091B1028035C1F134
:101900008823B1F120FC02C00C94381731C08091BB
:10191000710281112DC020FE1BC08091B302813065
:1019200039F523E333E34BEC51E46091BC02709151
:10193000BD028091BE029091BF020E94F638609372
:10194000BC027093BD028093BE029093BF0210C090
:1019500080917F0290918002A0918102B0918202D9
:101960008093BC029093BD02A093BE02B093BF02CD
:1019700030FC10C080917B0290917C02A0917D028E
:10198000B0917E028093D9029093DA02A093DB0299
:10199000B093DC028091B002843039F426FC03C09D
:1019A0008CE10C945A17E89426F88091B5028823AC
:1019B00069F0813029F48FAF1DAE92E09BAF0BC070
:1019C0001FAEA2E0ADAFB1E0BBAF05C0E2E0EFAF4C
:1019D000F1E0FDAF1BAE8091B302813021F02F8D7D
:1019E0002330C9F52FC060EBC62E62E0D62EE12C65
:1019F000F12C3B8DA32EB12CC5010E2C02C0959568
:101A000087950A94E2F780FF12C023E333E34BEC9F
:101A100051E4D6019E966D917D918D919C91D197C7
:101A20000E94F638F60166A777A780AB91ABFFEF6F
:101A3000EF1AFF0A24E0C20ED11C33E0E316F104D2
:101A4000D9F6CDCF8091B602813029F44B8D443048
:101A500011F00C9430178CE0E4E9F2E0DE0111960D
:101A600001900D928A95E1F78BA59CA591FD08C088
:101A70000091B0020A30C9F00C3509F4B3C01EC1A0
:101A80008091B702873018F08DE10C945A1790912D
:101A90007602891769F3BE016F5F7F4F0E948F1E28
:101AA000882311F40C944617E3CF9B8D911103C04A
:101AB0008AE10C945A17C10180759927892B09F482
:101AC0006FCF6091D1027091D2028091D302909138
:101AD000D4020E94D9390E9417376730A8F6809146
:101AE000CC02843141F0823011F00C94321727FE81
:101AF00002C00C943217AFEA2A22662319F0615013
:101B000069A703C0B091B702B9A760EC72E089A5DC
:101B10000E948F1E882311F40C9446170091CC026A
:101B20004090AC025090AD026090AE027090AF0257
:101B300040EBE42E42E0F42E50E7A52E52E0B52E05
:101B4000C12CD12CEB8D8E2E912CC4010C2C02C0FB
:101B5000959587950A94E2F780FF35C0043151F5D9
:101B6000D501D0962D913D914D915C91D39758968A
:101B70006D917D918D919C915B970E949E35F701AF
:101B800026A537A540A951A90E949E35D701509698
:101B90006D937D938D939C935397B2E0CB1213C0BA
:101BA000A30192010E949E35F701608B718B828B9D
:101BB000938B09C0F70186A597A5A0A9B1A9808B31
:101BC000918BA28BB38BFFEFCF1ADF0A24E0E20EDA
:101BD000F11C34E0A30EB11C43E0C416D10409F09B
:101BE000B4CF3FC18B8D882309F462CF4090AC0203
:101BF0005090AD026090AE027090AF0220E7822E4E
:101C000022E0922EDE0111967D0130EBC32E32E0F0
:101C1000D32EA12CB12CE82FF0E0F8A7EFA38FA1D1
:101C200098A50A2C02C0959587950A94E2F780FF43
:101C300029C0D7012D913D914D915C91F401608DAA
:101C4000718D828D938D0E949E35D6019E962D9129
:101C50003D914D915C91D1970E949E35F60166A70A
:101C600077A780AB91ABF2E0AF1216C0A30192014F
:101C70000E949E35D6019E966D937D938D939C9385
:101C8000D1970AC0F40180A991A9A2A9B3A9F6012C
:101C900086A797A7A0ABB1ABFFEFAF1ABF0A24E0AE
:101CA000820E911C34E0E30EF11C44E0C40ED11C02
:101CB00083E0A816B10409F0B2CFD2C09F8D933053
:101CC00069F40E3109F494C0053309F4C3C00C3132
:101CD00009F0C6C060EC72E086E08DC0AB8DAA232F
:101CE00081F3B091B402BFA34090AC025090AD021A
:101CF0006090AE027090AF0280E7A82E82E0B82E0E
:101D000090EBE92E92E0F92EFE0131964F01C12CA5
:101D1000D12C2A2F30E03AA729A789A59AA50C2C07
:101D200002C0959587950A94E2F780FD0BC0F501F6
:101D3000808D918DA28DB38DF70186A797A7A0AB5B
:101D4000B1AB44C0053309F441C0FFA1F1112BC070
:101D5000D501D0962D913D914D915C91D397F40191
:101D600060817181828193810E949F35D7019E9607
:101D70002D913D914D915C91D1970E949F35F70136
:101D800066A777A780AB91ABF2E0CF121FC0A3018B
:101D900092010E949F35D7019E966D937D938D93FE
:101DA0009C93D19713C0F501208D318D428D538DB9
:101DB000D7019E966D917D918D919C91D1970E94B6
:101DC0009F35F70166A777A780AB91ABFFEFCF1ADE
:101DD000DF0A24E0A20EB11C34E0E30EF11C44E063
:101DE000840E911C83E0C816D10409F096CF69CF08
:101DF00060EC72E087E00E948F1E882311F40C943F
:101E000046179B8D911103C019A61F8E2AC0A0E70B
:101E1000B2E0E0EBF2E080E090E04B8D242F30E088
:101E2000A901082E02C0559547950A94E2F740FD96
:101E30000AC058964D915D916D917C915B97408B56
:101E4000518B628B738B0196149634968330910577
:101E500039F706C08091B102823010F00C9434172B
:101E600019A68091B1028FA3803529F49B8D911121
:101E70000C9436177AC2AF8DA23009F076C2BFA19A
:101E8000B11104C0EB8DE11170C22AC020E030E036
:101E9000A9016091BC027091BD028091BE02909137
:101EA000BF020E949436882309F4E2C7FFA1FC38E0
:101EB00009F445C240F4F230A9F0F330B1F0F1304A
:101EC00009F053C20AC02FA12E3809F438C208F411
:101ED00033C22F3809F430C248C23B8D311145C29C
:101EE0001F8E43C24BA144604BA38B8D882309F402
:101EF000DFCDBBADAB2FB0E0B8ABAFA7FDADEF2FE3
:101F0000F0E0FCABEBAB81E090E07C010BAC02C0FD
:101F1000EE0CFF1C0A94E2F70DAC02C0880F991F6B
:101F20000A94E2F7E82AF92A2B8D822F90E08E217D
:101F30009F21892B09F49EC7FD01EE0FFF1FEE0FB5
:101F4000FF1FE055FD4FAA0FBB1FAA0FBB1FA857CD
:101F5000BD4F2D913D914D915C9166A577A580A9CE
:101F600091A90E949E352B013C01EBA9FCA9EE0F23
:101F7000FF1FEE0FFF1FE055FD4FABA9BCA9AA0F35
:101F8000BB1FAA0FBB1FA857BD4F2D913D914D916F
:101F90005C9166A577A580A991A90E949E354B0109
:101FA0005C01610130E8C322DD2427FEF5C0E8941E
:101FB00027F84CE050E06EED72E088E892E00E9475
:101FC000613A892B11F481E275C78091B3028130A7
:101FD000B1F423E333E34BEC51E46091D50270910B
:101FE000D6028091D7029091D8020E94F638609371
:101FF000D5027093D6028093D7029093D802809135
:10200000D5029091D602A091D702B091D8028FABA1
:1020100098AFA9AFBAAFA3019201C301B2010E9468
:10202000F63827966CAF7DAF8EAF9FAF2797A5018F
:102030009401C501B4010E94F6382B966CAF7DAFB8
:102040008EAF9FAF2B9720E030E040E850E46FA9BF
:1020500078AD89AD9AAD0E94F6382FA938AD49AD5B
:102060005AAD0E94F63827962CAD3DAD4EAD5FAD12
:1020700027970E949E352B962CAD3DAD4EAD5FADA2
:102080002B970E949E356B017C0120E030E0A90176
:102090000E94943687FDF0C6C701B6010E949539AB
:1020A0006B017C012B962CAD3DAD4EAD5FAD2B97FA
:1020B00027966CAD7DAD8EAD9FAD27970E949F3565
:1020C0000E9495399B01AC01C701B60190580E944E
:1020D0009E366B017C019FA1933021F4F7FAF094B6
:1020E000F7F8F09420E030E0A9016FA978AD89AD50
:1020F0009AAD0E94943687FF11C0F7FAF094F7F872
:10210000F0948FA998ADA9ADBAADB0588093D5021F
:102110009093D602A093D702B093D8020FA518A926
:10212000000F111F000F111F00541D4FA701960132
:10213000C501B4010E94F6389B01AC01C301B20194
:102140000E949E3520E030E040E05FE30E94F638D8
:10215000D8016D937D938D939C9313970BA91CA924
:10216000000F111F000F111F00541D4FA7019601F2
:10217000C301B2010E94F638A50194010E949F3567
:1021800020E030E040E05FE30E94F638F801608331
:10219000718382839383E9C0212F30E038AF2FAB66
:1021A000E222F322EF2809F469C631EF232280915D
:1021B000B302813009F47BC0EFA5F8A9EE0FFF1F31
:1021C000EE0FFF1FE054FD4FC080D180E280F3800E
:1021D000A7019601C301B2010E949E352B013C016B
:1021E000EBA9FCA9EE0FFF1FEE0FFF1FE054FD4F00
:1021F00080819181A281B3818FA798ABA9ABBAAB43
:102200009C01AD01C501B4010E949E354B015C01EA
:10221000A3019201C301B2010E94F6382B013C01D7
:10222000A5019401C501B4010E94F6389B01AC01DF
:10223000C301B2010E949F350E9495394B015C0198
:10224000A7019601C701B6010E94F6386B017C0117
:102250002FA538A949A95AA9CA01B9010E94F6387F
:102260009B01AC01C701B6010E949F350E949539C0
:102270006B017C016093D5027093D6028093D702E4
:102280009093D8029B01AC01C501B4010E949E3518
:102290004B015C01E894B7F82AE037ED43EA5BE3D1
:1022A000C501B4010E94B63818164CF15EC000EBAF
:1022B00012E08FA998AD0C2C02C0959587950A94D1
:1022C000E2F780FF12C023E333E34BEC51E4D80183
:1022D00050966D917D918D919C9153970E94F63807
:1022E000F801608B718B828B938BFFEFCF1ADF0A23
:1022F0000C5F1F4F23E0C216D104D9F65DCF20E05A
:1023000030E040E05FE3C501B4010E94B638181622
:102310000CF459CE2FE632E143E85AE3C701B60187
:102320000E94F6389B01AC01C501B4010E94B63889
:1023300018160CF448CE19C03BA130613BA38FA105
:102340008E58823018F44BA148604BA38B8D8823A4
:1023500009F4AECB4CE050E06EED72E088E892E01C
:102360000E94613A892B09F42ECE2BA121709BA1EA
:1023700090FF03C0C1018E7D03C0C1018E7D9C7F93
:10238000AF8DA111937E892B09F07AC58E01035F71
:102390001F4F89E0F80111928A95E9F7222309F489
:1023A0004BC08BA59CA5867B892B09F06BC58091C2
:1023B000B002853311F0811165C580917B02909147
:1023C0007C02A0917D02B0917E02898B9A8BAB8BAF
:1023D000BC8B9091790280917802892B4091BC024C
:1023E0005091BD026091BE027091BF024D875E8721
:1023F0006F87788B84608D8B8091600285FF06C02B
:102400008EED92E00E94272B81113EC5B8018EED22
:1024100092E00E94050480910A02811139C50E9450
:10242000671D892B09F434C580E280930A020E945B
:10243000B01E0E94D2342CC580916002F0907902C7
:1024400081FF26C08FA18150833018F0FBA1F0647A
:10245000FBA32B8D222339F03F8D323021F44BA189
:1024600040684BA315C080E1F81212C08091700241
:1024700081509BA19074833030F4992349F09BA143
:1024800090629BA305C0911103C0ABA1A062ABA356
:102490008091CD029091CE02A091CF02B091D00256
:1024A0008093840290938502A0938602B093870262
:1024B0008091B20280937102882311F088E08D8BA5
:1024C0008091BC029091BD02A091BE02B091BF026A
:1024D00080937F0290938002A0938102B093820246
:1024E0008D879E87AF87B88B8090D9029090DA0253
:1024F000A090DB02B090DC02A501940160917B0208
:1025000070917C0280917D0290917E020E949436AF
:10251000BBA1B074EB2E811103C0EBA1E5FF20C07D
:10252000FF2071F0FBA1F7FD0BC0EE2021F040E091
:1025300050E0BA0102C0B501A4018F2D0E943B03F7
:102540008091D9029091DA02A091DB02B091DC0275
:1025500080937B0290937C02A0937D02B0937E02D5
:10256000E1100CC080917B0290917C02A0917D02D1
:10257000B0917E02898B9A8BAB8BBC8B8091DD02F4
:10258000809383028091BA0290917902981751F05A
:1025900049895A896B897C890E943B038091BA02E0
:1025A000809379029D8980917902892B8D8BF0909F
:1025B000B902809178028F1569F080910A02823009
:1025C00029F00E9402028F2D0E9459028091B902C7
:1025D000809378029D8980917802892B8D8B8091E0
:1025E000B002843099F4C090D102D090D202E09031
:1025F000D302F090D40280910A02823039F00E9416
:10260000020240E0C701B6010E94E3318091B502A9
:10261000809374028091B302809372022F8D2330D5
:1026200071F58091B60280937502811108C01092F5
:10263000E6021092E7021092E8021092E902C090BE
:10264000E602D090E702E090E802F090E902A701EC
:1026500096016091AC027091AD028091AE029091B2
:10266000AF020E949436882351F0C092AC02D092FF
:10267000AD02E092AE02F092AF020E949E2B8091DA
:10268000B70290917602981769F0809376028CE0F9
:10269000FE013196A4E9B2E001900D928A95E1F72E
:1026A0000E949E2B8091B402809373028091B002AD
:1026B0008632F1F138F48C3109F18E31F9F08A303B
:1026C00069F04FC08C35D1F1863609F441C08832AB
:1026D00009F047C068E872E087E02DC060EC72E066
:1026E00089A50E94D21D8091760239A5381339C080
:1026F0008CE0E0ECF2E0A4E9B2E025C08D898160D5
:102700008D8B4F8D442329F0B8018EED92E00E940D
:102710000504B80180EC92E00E9405048CE0E0EC36
:10272000F2E0A8E8B2E001900D928A95E1F719C0B5
:1027300068E872E086E00E94D21D13C08CE0EEEDE6
:10274000F2E0A0EAB2E001900D928A95E1F707C0AD
:102750008CE0E0EAF2E0DF011D928A95E9F70E9441
:102760009E2B8091B10280937002803509F41CC3C6
:10277000BF8DB23009F018C3813021F4BE01635F10
:102780007F4F06C0811109C08D8981608D8BB80192
:102790008EED92E00E940504FEC28250823008F065
:1027A00093C28091D5029091D602A091D702B091A8
:1027B000D8028F8F98A3A9A3BAA3ABAD94E0A99F29
:1027C00070011124F701E857FD4FF8A7EFA3970117
:1027D00020543D4F3AA729A7D9014D905D906D90A7
:1027E0007C902081318142815381C301B2010E94DA
:1027F0009F356BA77CA78DA79EA7EDADB4E0EB9F9F
:1028000080011124980128573D4F3CAF2BAFC801E0
:1028100080549D4F9EAF8DAFDC018D909D90AD900B
:10282000BC90F9012081318142815381C501B401FD
:102830000E949F356FA778AB89AB9AAB77FA7094FB
:1028400077F87094D501C401B0588B8F9C8FAD8FF1
:10285000BE8FF701E252FD4F2BA53CA54DA55EA50D
:1028600060817181828193810E949E356B017C0120
:10287000F801E252FD4F2FA538A949A95AA9608154
:102880007181828193810E949E354B015C01A70179
:102890009601C301B2010E94F6386BAB7CAB8DABE5
:1028A0009EABA50194016B8D7C8D8D8D9E8D0E94BC
:1028B000F6389B01AC016BA97CA98DA99EA90E9449
:1028C0009F356BAB7CAB8DAB9EABA5019401C30177
:1028D000B2010E94F6384B015C01A70196016B8D95
:1028E0007C8D8D8D9E8D0E94F6389B01AC01C501BB
:1028F000B4010E949E352BA93CA94DA95EA90E9456
:102900001E366B017C019BA192FF13C02DEB37E3B8
:1029100046E055EBC701B6010E94B63887FD1DC0E1
:102920002BED3FE049EC50E4C701B6010E949E3513
:1029300012C02DEB37E346E055E3C701B6010E9414
:102940009436181654F02BED3FE049EC50E4C701E3
:10295000B6010E949F356B017C01809054029090DB
:102960005502A0905602B09057022F8D38A149A170
:102970005AA1CA01B9010E949F35A50194010E9484
:102980009E35A50194010E94F6380E9495394B01AD
:102990005C0120E030E040E05FE3C701B6010E9447
:1029A000F6382F8D38A149A15AA10E94F6389F7799
:1029B000A50194010E949E360E9483370E9417371A
:1029C0007CAB6BABDB01AB2B09F4D8CE1D894B0183
:1029D000A12CB12C13FF12C0C501B4010E944637CF
:1029E0009B01AC016D857E858F8598890E94F638A4
:1029F0006D877E878F87988B177F1D8BC501B401EC
:102A00000E9446374B015C019B01AC01C701B60136
:102A10000E949E366BA37CA38DA39EA3EFADB4E072
:102A2000EB9FC00111248C0108571D4FFC01E2529D
:102A3000FD4FD8012D913D914D915C916081718147
:102A4000828193810E949E35A50194010E949E3649
:102A500027966CAF7DAF8EAF9FAF27972BA13CA180
:102A60004DA15EA1CA01B9010E94F6389B01AC01DB
:102A700060E070E080E090E40E949E356B017C0194
:102A80002BEA3AEA4AE25EE36BA17CA18DA19EA10A
:102A90000E94F6384B015C0120E030E040E850E451
:102AA000C701B6010E949F359B01AC01C501B4016D
:102AB0000E94F6386FAB78AF89AF9AAF20E030E074
:102AC00040E05FE3C701B6010E94F63823966CAF81
:102AD0007DAF8EAF9FAF23971F8E22242394312C7E
:102AE000EBA9FCA9E215F30509F448CEBF8DBC3073
:102AF00008F044C02B8D3C8D4D8D5E8D23966CADC2
:102B00007DAD8EAD9FAD23970E94F6386B017C01A1
:102B1000A30192016FA978AD89AD9AAD0E94F638F4
:102B2000A70196010E949F357B016C01A3019201D0
:102B300023966CAD7DAD8EAD9FAD23970E94F63888
:102B40004B015C012B8D3C8D4D8D5E8D6FA978AD59
:102B500089AD9AAD0E94F6389B01AC01C501B40164
:102B60000E949E352B013C01EF8DEF5FEF8F4701F7
:102B700056018B8E9C8EAD8EBE8E65C0B10180E0FD
:102B800090E00E9446372BA13CA14DA15EA10E947E
:102B9000F6386B017C010E9499366B8F7C8F8D8F8C
:102BA0009E8FC701B6010E9487394B015C01A9A520
:102BB000BAA5CD90DD90ED90FC90F7FAF094F7F87F
:102BC000F094ADADBEAD8D919D910D90BC91A02DB9
:102BD0008F8F98A3A9A3BAA3A70196016B8D7C8DB3
:102BE0008D8D9E8D0E94F6382B013C012F8D38A1D2
:102BF00049A15AA1C501B4010E94F6389B01AC015C
:102C0000C301B2010E949F352B013C01A70196012F
:102C1000C501B4010E94F6386B017C012F8D38A1EB
:102C200049A15AA16B8D7C8D8D8D9E8D0E94F638A9
:102C30009B01AC01C701B6010E949E356B8F7C8F52
:102C40008D8F9E8F1F8EA30192016BA57CA58DA5F4
:102C50009EA50E949F35EFA1F8A5608371838283B2
:102C600093832B8D3C8D4D8D5E8D6FA578A989A9A1
:102C70009AA90E949F35ABADBCAD6D937D938D93AA
:102C80009C93139727962CAD3DAD4EAD5FAD279726
:102C9000F80160817181828193810E949F35D80102
:102CA0006D937D938D939C931397BE01635F7F4FCC
:102CB00088E892E00E94050480910B0281116BC0AC
:102CC000BFEF2B1A3B0A0CCF8D8984608D8B8091CE
:102CD0000A02823009F45FC00E94020280910B0256
:102CE000811162C0FBA1F071FF2E10920F022BA187
:102CF00023FB882780F90E94EF2B86B18072909188
:102D0000F001891749F084E00E940E2B0E94B61B47
:102D100080E00E94EF2B48C0B8018EED92E00E9447
:102D2000050481E08093090282E00E941E2B0E942C
:102D3000B61B80910B02811137C080910A0281116C
:102D4000F6CF80910902813081F4FF2051F08CE0B0
:102D5000E1EFF1E0ADEFB1E001900D928A95E1F77E
:102D600007C085E00E940E2B03C081E080930F0214
:102D70001092090280E00E94EF2B0E94B61B0E9475
:102D80009A2A0E94771D0E9412320E949B2E8091E7
:102D90000F0281118CC08CE0EEEDF2E0A8E8B2E009
:102DA00001900D928A95E1F78091B80280937702A5
:102DB000882309F47FC00E940202809177029091DB
:102DC0000A02833041F49230D1F188E00E941E2B38
:102DD0000E94B61B34C081E080937002109274028E
:102DE0001092730210927102109276021092790280
:102DF0001092780284E680931102809312028093ED
:102E00001302923091F064E972E080E00E948F1E1C
:102E10008823E1F10E949E2B40E050E0BA0180E05F
:102E20000E94100380E00E94590283EA92E00E940F
:102E3000FB2C8AE392E00E94FB2C0E94962E1092BB
:102E400077022FC081E036C082E034C088E132C012
:102E500086E230C089E12EC084E02CC08BE12AC01C
:102E600085E228C084E126C08EE124C08FE122C023
:102E700086E120C080E21EC082E21CC083E21AC04C
:102E800084E218C080E116C08FE014C087E012C051
:102E90008CE0EEEDF2E0A8E8B2E001900D928A95A8
:102EA000E1F780E007C01A8E1BA20C94030A0E946F
:102EB00059037ACFC65BDF4F0FB6F894DEBF0FBE63
:102EC000CDBFDF91CF911F910F91FF90EF90DF90D9
:102ED000CF90BF90AF909F908F907F906F905F90BA
:102EE0004F903F902F9008953F924F925F926F9234
:102EF0007F928F929F92AF92BF92CF92DF92EF928A
:102F0000FF920F931F93CF93DF93CDB7DEB7A497B4
:102F10000FB6F894DEBF0FBECDBF10910E07112380
:102F200091F181E080930A0289EA92E00E94FB2CF1
:102F3000812F0E94D52C0E940A2D85EF91E00197E8
:102F400039F0EFE9FFE03197F1F700C00000F7CF6B
:102F50001150123030F08FB7F89410920E078FBFD7
:102F600012C083EA92E00E94FB2C81E992E00E9469
:102F7000FB2C0E94962E80E10E94142B80910D075D
:102F800084FFFCCFE8CF10910D07112309F4BBC2D9
:102F900014FF04C081E080930B02D0C310FFBFC1B7
:102FA0008CE0E1EFF1E0DE01599601900D928A95F7
:102FB000E1F7BE01675E7F4FCE010D960E94622B46
:102FC0008CE30E943D0280910A028830E1F058F4BF
:102FD000813099F1A8F0823099F1843009F043C032
:102FE00084EF92E03EC0803229F118F4803171F014
:102FF0003AC0803441F18038B1F58CED92E031C0B7
:1030000087E093E02EC083E093E02BC080910C0218
:1030100087FD10C08DEF92E00E94FB2C80910C0286
:1030200080FF06C080E31AC082FF17C085FFFACF79
:1030300081E314C089EF92E014C08EEE92E011C0DB
:1030400088EE92E00EC082EE92E00E94FB2C80910E
:103050000C0283FFE9CF83E301C082E30E943D02BB
:1030600002C00E94FB2C80914F02F82FF170BF2EFE
:1030700080FF07C080911602882319F085ED92E049
:1030800053C04090AC025090AD026090AE02709080
:10309000AF0254E9852E52E0952E9E012F5F3F4FDF
:1030A0007901CE010D966C0100E0F40161917191FE
:1030B000819191914F0120853185428553850E94F0
:1030C0009F35F7016083718382839383023061F4BB
:1030D000A30192010E949F35F7016083718382836F
:1030E0009383BB2019F0CACFB11011C0F701208122
:1030F000318142815381F6016081718182819381A6
:103100000E949E35F60160837183828393830F5FF3
:10311000F4E0EF0EF11C24E0C20ED11C033029F6BE
:10312000B110ACCF8EEC92E00E94FB2CCE010D963C
:103130000E94BC2C80914F0281FF1FC089EC92E05D
:103140000E94FB2C9091EB068091CA03981710F017
:10315000815F01C08150891B0E94D52C8CE20E94A6
:103160003D028091EB029091EA02981710F080588E
:1031700001C08150891B0E94D52C84EC92E00E94F2
:10318000FB2C80910A028C7749F06091AF0370911B
:10319000B0038091B1039091B20303C060E070E08E
:1031A000CB010E949E2C8CE20E943D02609117028E
:1031B000709118028091190290911A0240E00E94C9
:1031C000012C0E94F42EF82E0E94A32B082F86B10A
:1031D000982F90728091F001E92EE8268F2D802B98
:1031E0008E2959F18FEB92E00E94FB2CEE2019F012
:1031F00080E50E943D02FF2079F0F0FE03C088E5E3
:103200000E943D02F1FE03C089E50E943D02F2FEEC
:1032100003C08AE50E943D02002379F000FF03C04D
:1032200082E50E943D0201FF03C088E40E943D0246
:1032300002FF03C083E50E943D02809116028823AD
:1032400021F081508093160218C080910A028C7779
:1032500011F08DE101C089E0809316028091150282
:10326000811103C081E08093150289EB92E00E94F6
:10327000FB2CCE0101960E94BC2C0091150200236C
:1032800021F001500093150242C080910A028C7710
:1032900011F083E101C089E08093150284EB92E094
:1032A0000E94FB2C809111020E94D52C8CE20E947E
:1032B0003D02809112020E94D52C8CE20E943D02B8
:1032C000809113020E94D52C8091B00087FF05C029
:1032D0002D9B02C002E001C001E0439B03C040E41B
:1032E000F42E03C0002399F0F12C80EB92E00E94B1
:1032F000FB2C002339F0013011F483E501C083E495
:103300000E943D02FF2019F086E40E943D028EE3F8
:103310000E943D020E940A2D81E00E94142B812F01
:10332000887E09F467C080910A02982F937009F093
:1033300050C08872A1F080910C02807C81F40E94C0
:103340006E2682E080930E0280910A02803239F468
:1033500017FDF2C180910C02806880930C0280916D
:103360000A02811103C091E090930C0216FF07C07E
:1033700085FD05C090910C02906490930C0213FFA0
:1033800005C0807E19F480E180930A0215FF21C0F8
:1033900083EA92E00E94FB2C8FE492E00E94FB2CD7
:1033A0000E94962E80910C0287FD0EC090910A0219
:1033B000903439F483FFBCC1837E826080930C0219
:1033C000B7C1903809F0B4C180910C02806280933B
:1033D0000C0217FF0CC080910A02813029F4809101
:1033E0000C02856080930C0280E880930A0288EECC
:1033F0000E94142B11FF44C0812F8876F1F5809133
:103400000A02803471F480910C0285FD0AC084FFA9
:1034100003C010920A0205C082FF03C08860809337
:103420000C0280910A02882381F084FF26C09091CB
:103430000C0290FF22C0803141F480911402882355
:1034400021F088608093140218C010920E020E942E
:10345000671D892B71F080910C0286FD0AC01092C5
:103460000C0288E080930A020E94B01E0E94D234AF
:1034700004C010920C0210920A0282E00E94142BE7
:1034800012FF41C080910A02807D90910C02882336
:10349000D9F080910D02811117C097FD15C00E94CF
:1034A0006E268091CA038093C8030E949226809161
:1034B0000E0281FF05C090910C02916090930C0266
:1034C000897F80930E021CC097FF0AC010920E02E3
:1034D0000E94771D0E949A2A0E9459030E9412326C
:1034E00080910C0285FF08C08F77816080930C0269
:1034F00080E480930A0204C010920C0210920A0227
:1035000084E00E94142B90910F07992309F4ABC01B
:103510008FB7F89410920F078FBF4091110290FD62
:1035200002C0842F01C084E691FD865F92FD8A501F
:1035300093FD8F5F94FD8150893C08F088EC8A30C0
:1035400008F48AE03091120295FD02C0232F01C0D9
:1035500024E696FD22E397FD29E1481303C02317D3
:1035600009F481C080931102209312021092150277
:103570001091CA033090EB0689E9D82E96E7E92E20
:1035800026E9F22E0EE732E3432E131509F457C055
:10359000812E912C489CC001499C900D1124FC0166
:1035A000E553FC4F5F01CF010E94F41C562E672E9D
:1035B000782EC92E2D2D3E2D4F2D502F0E94B6381E
:1035C00018164CF42D2D3E2D4F2D502F6D2D7E2D88
:1035D0008F2D902F08C0252D362D472D5C2D652D64
:1035E000762D872D9C2D0E94F638F501668B778B02
:1035F000808F918F489CC001499C900D11249C01A3
:1036000025533C4F7901F90182A093A0A4A0B5A055
:10361000A501940166897789808D918D0E94B638C5
:1036200018162CF4F701868A978AA08EB18E1F5F38
:10363000103109F410E0D52C73010C2DA6CF8D2D7F
:103640009E2DAF2DB02F8093090790930A07A0936A
:103650000B07B0930C070E946E268091CA038093DB
:10366000C8030E94922610911007112309F459C033
:103670008FB7F894109210078FBF9091130210FD2E
:1036800002C0892F01C084E611FD865F12FD8A50B9
:1036900013FD8F5F14FD8150893C08F088EC8A305F
:1036A00008F48AE09817D1F08093130280910A02FF
:1036B00081110DC040917B0250917C0260917D028E
:1036C00070917E02809179020E94100305C0809162
:1036D0000E02886080930E021092150280910A02F9
:1036E00015FF0DC0803159F490911402911102C060
:1036F00092E003C090FF03C0946090931402107C8A
:1037000081F0882311F0887361F01091780216FF20
:1037100002C01F7B01C01064812F0E9459021093C8
:10372000780280910A028C7F49F00E94B01E06C088
:1037300080E480930A0248CE80E218CEA4960FB6A9
:10374000F894DEBF0FBECDBFDF91CF911F910F91D7
:10375000FF90EF90DF90CF90BF90AF909F908F90B1
:103760007F906F905F904F903F900895CF92DF923F
:10377000EF92FF921F93CF93DF930E947417809173
:103780000C02882309F4FEC00E94671D009771F4A3
:10379000C091790280917802C82BC0907B02D090B2
:1037A0007C02E0907D02F0907E020EC0FC01C18997
:1037B000C073439B02C020E401C020E0C22BFC0187
:1037C000C6A4D7A4E0A8F1A88091600281FF03C03D
:1037D00080E20E94FC2ADC2FD07311E0C07C809133
:1037E0000C02882309F4CEC090910B029111CAC03B
:1037F00080FFC5C090910A02292F207C09F474C073
:1038000082FD12C01092140240E050E0BA0180E044
:103810000E94100380E00E94590280910C028D7F6B
:10382000846080930C02ABC09038E1F483EA92E0AC
:103830000E94FB2C8CE092E00E94FB2C0E94962EB2
:1038400040E050E0BA0180E00E94100380E00E9456
:1038500059020E94543280910B02811193C00E9440
:103860007417F9CF903419F48F7D80930C028091F6
:103870000C0283FF84C0909179029923C1F081FDED
:1038800016C08091600281FF06C080910E028860A0
:1038900080930E020CC0B701A6018D2F0E94100369
:1038A00041E060E070E080E890E40E94E3318091C4
:1038B0007802882371F080910C0281FD0AC08C2F60
:1038C0000E94590241E060E070E080E89FE30E94BE
:1038D000E33180910C0281FD52C0806180930C0223
:1038E00082E00E941E2B4BC0809114028823C9F1F4
:1038F00081FF0DC0809179028823B1F040E050E053
:10390000BA0180E00E9410031093140238C08C703A
:10391000B1F18091790281110AC08091140283FF74
:1039200003C082E00E941E2B1092140228C083EA7A
:1039300092E00E94FB2C85E192E00E94FB2C0E9409
:10394000962E8091600281FF06C080910E028860F1
:1039500080930E02E2CFB701A6018D2F0E941003C3
:10396000DCCF80910E0283FF0AC0B701A6018D2F24
:103970000E94100380910E02877F80930E020E94A6
:1039800074172DCFDF91CF911F91FF90EF90DF90B3
:10399000CF9008950E94671D892B19F082E00C9446
:1039A0001E2B0895F894F999FECF92BD81BD81E058
:1039B0008FBB80B58627482F082E000C550B262F6D
:1039C00030E024233523232B39F06F3F19F060BDFD
:1039D00084E006C084E104C0882321F060BD84E255
:1039E0008FBBF99A78940895BF92CF92DF92EF92AD
:1039F000FF920F931F93CF93DF937C01FC0102A5ED
:103A000013A5D4A5C5A5818980FF18C060911202B5
:103A100070E080E090E00E9448372AE037ED43E212
:103A20005CE30E94F6389B01AC01B8018D2F9C2FFE
:103A30000E94F6388B01D82FC92F2DC082FD17C0E8
:103A40006091110270E080E090E00E9448372AE027
:103A500037ED43E25CE30E94F6389B01AC01B8010C
:103A60008D2F9C2F0E94F6388B01D82FC92FF7017C
:103A7000B6A0C7A0D0A4F1A42B2D3C2D4D2D5F2DB9
:103A8000B8018D2F9C2F0E94B638181624F40B2DE8
:103A90001C2DDD2DCF2D20E030E040E85FE3B801A4
:103AA0008D2F9C2F0E94B638181624F000E010E0ED
:103AB000D0E8CFE3B8018D2F9C2FDF91CF911F91DC
:103AC0000F91FF90EF90DF90CF90BF90089580917D
:103AD000CA039091EB06981739F022E3829FC00148
:103AE000112485539C4F089580E090E008958CE167
:103AF000E1EFF6E0DF011D928A95E9F71092CA0323
:103B00001092EB0681E08093C9031092C8030895D8
:103B10009F92AF92BF92CF92DF92EF92FF920F935C
:103B20001F93CF93DF935C018A017B01E40EF51EA6
:103B3000EB01912C6C01C61AD70ACE018C0D9D1D8C
:103B4000CE15DF0589F0911008C0292D990C330B93
:103B5000232F221F2227221F01C021E06991922ECC
:103B6000960E0E94D21CE9CF692DC501800F911FCE
:103B7000DF91CF911F910F91FF90EF90DF90CF9049
:103B8000BF90AF909F900C94D21C6AE080E090E0D0
:103B90000E94D21C45E550E06BE172E081E090E0CC
:103BA0000C94881D0F931F93CF93C82F8B010E94F5
:103BB00002022DE0C29FC00111244CE050E0B80188
:103BC0009E5FCF911F910F910C94881DEF92FF92F1
:103BD0000F931F93CF93DF93CDB7DEB72C970FB61C
:103BE000F894DEBF0FBECDBF182F80FF0BC085E558
:103BF000ECE0F3E0ABE1B2E005900D928A95E1F7DD
:103C00000E94C51D11FF10C0CE0101967C018CE001
:103C1000F70111928A95E9F700E0B701802F0E9421
:103C2000D21D0F5F0830C9F712FF14C060E080E0BA
:103C300093E00E94D21C60E081E093E00E94D21CDD
:103C400060E081E593E00E94D21C60E082E593E0B1
:103C50000E94D21C13FF0AC060E08EEA93E00E942B
:103C6000D21C60E08FEA93E00E94D21C2C960FB623
:103C7000F894DEBF0FBECDBFDF91CF911F910F91A2
:103C8000FF90EF900895F999FECF92BD81BD81E03C
:103C90008FBB80B508959F92AF92BF92CF92DF9273
:103CA000EF92FF920F931F93CF93DF935B018A01F3
:103CB0007C01E40EF51EEC01912C6B01C81AD90AA7
:103CC000C6018C0F9D1FCE15DF0589F00E94431E93
:103CD000911008C0292D990C330B232F221F222766
:103CE000221F01C021E0982E920E8993E9CFC501D1
:103CF000800F911F0E94431E21E030E0981611F0C2
:103D000020E030E0C901DF91CF911F910F91FF902A
:103D1000EF90DF90CF90BF90AF909F9008951F934A
:103D2000CF93DF93182FEB018DE0189FB001112482
:103D30007E5F4CE050E0CE010E944B1E892B59F46F
:103D40008CE0FE0111928A95E9F7BE01812F0E9455
:103D5000D21D80E001C081E0DF91CF911F910895D5
:103D60002F923F924F925F926F927F928F929F928B
:103D7000AF92BF92CF92DF92EF92FF920F931F9379
:103D8000CF93DF93CDB7DEB7EC970FB6F894DEBFD5
:103D90000FBECDBF80910E0280FD87C790911203A8
:103DA0008091EC06981709F480C78091EF069091F6
:103DB000F006892B09F015C310910E0212FF09C0FD
:103DC0008091EB0622E3289FC001112485539C4F6C
:103DD00002C00E94671D9093F0068093EF0620902A
:103DE000EF063090F0062114310409F45EC700910B
:103DF0009903802F817000FF03C010929903EAC0DD
:103E0000909198039F5F953009F0892F80939803D4
:103E1000E82EF12C32E13E9DF0013F9DF00D112482
:103E2000E25CFC4FF093EE06E093ED06D101509674
:103E30009C915097908BE2E18E9FC001112420E06D
:103E400030E04D915D916D917D91F901E80FF91F81
:103E5000E25CFC4F689412F8440F551F661F771FF1
:103E60001694D1F740835183628373832C5F3F4F55
:103E70002C30310531F722E12E9DF0012F9DF00D00
:103E800011249F01225C3C4FF10184859585A68514
:103E9000B78543E0880F991FAA1FBB1F4A95D1F72A
:103EA000F90184879587A687B787D1011C966D9104
:103EB0007D918D919C911F970E94463760939E0340
:103EC00070939F038093A0039093A103F101268D2B
:103ED000378D40A151A10E949E369B01AC01609399
:103EE000A2037093A3038093A4039093A50360E0BF
:103EF00070E080EA9FE30E949E366093A603709371
:103F0000A7038093A8039093A90310929A03109299
:103F10009B0310929C0310929D0311FD02C003FFAE
:103F20001FC06091B7037091B8038091B90390915D
:103F3000BA036093AF037093B0038093B10390937F
:103F4000B2039B01AC010E94F638D10152966D93E9
:103F50007D938D939C935597077F009399030FC092
:103F6000F10162897389848995890E9495396093EA
:103F7000AF037093B0038093B1039093B203F2E167
:103F8000FE9DC001FF9D900D11249C01225C3C4FC1
:103F90007901D90151961C928091600281FF1AC06B
:103FA000F101818985FF16C022A533A544A555A539
:103FB00060E070E080E89FE30E949E366093C30358
:103FC0007093C4038093C5039093C603E1E0D701C7
:103FD0005196EC931092AB031092AC031092AD0388
:103FE0001092AE03D1015A962D913D914D915C9165
:103FF0005D9729833A834B835C8360E070E080E0C7
:104000009FE30E949E364B015C01F101468C578C68
:1040100060A071A011FF4BC0F2E0F093AA03D101A0
:104020005296CD90DD90ED90FC905597A7019601AA
:104030000E94F6389B01AC01C301B2010E949E357B
:104040004B015C0120E030E0A9010E94943687FF1B
:104050001DC029813A814B815C81CA01B9010E944E
:104060009F35A30192010E94F6389B01AC01C70164
:10407000B6010E949E350E9495396093B7037093F4
:10408000B8038093B9039093BA03A8C18092AB039D
:104090009092AC03A092AD03B092AE031092B7031E
:1040A0001092B8031092B9031092BA0397C11092FC
:1040B000AA034092BB035092BC036092BD0370926E
:1040C000BE0312FF0CC01092B7031092B8031092F7
:1040D000B9031092BA03C12CD12C760124C0E0910F
:1040E000CA03EF5FE03109F4E0E08091EB068E1740
:1040F00059F0B2E3BE9FF0011124E553FC4FC28892
:10410000D388E488F58803C0C12CD12C7601C7017F
:10411000B6010E9495396093B7037093B8038093FA
:10412000B9039093BA03C1010E94F41C698B7A8B86
:104130008B8B9C8B9B01AC010E94F63869877A8738
:104140008B879C87D10152962D913D914D915C9129
:1041500055972D833E834F8358870E94943687FF5F
:104160006CC029853A854B855C856D817E818F8108
:1041700098850E949E35A50194010E94F6389B0106
:10418000AC01C301B2010E949E356093BB037093E2
:10419000BC038093BD039093BE0320E030E0A901EF
:1041A0000E94943618163CF1B2E0B093AA0329811C
:1041B0003A814B815C81CA01B9010E949F35A301FC
:1041C00092010E94F6389B01AC016D817E818F8146
:1041D00098850E949E350E9495396093B70370932D
:1041E000B8038093B9039093BA03809199038860D0
:1041F00080939903F3C0A701960169857A858B8521
:104200009C850E949E35A50194010E94F63860931A
:10421000BF037093C0038093C1039093C2032989A5
:104220003A894B895C892093B3033093B40340935C
:10423000B5035093B60333E0B6C0A70196016D8174
:104240007E818F8198850E949E35A50194010E94F0
:10425000F638A30192010E949F3520E030E040E053
:104260005FE30E94F6386D877E878F87988B20E00A
:1042700030E0A9010E94B63818160CF097C02D85C1
:104280003E854F855889C301B2010E94B638181681
:104290000CF088C0A701960169857A858B859C857D
:1042A0000E949E35A50194010E94F6389B01AC0145
:1042B0006093BF037093C0038093C1039093C203C4
:1042C0006D857E858F8598890E94B6381816CCF545
:1042D00089899A89AB89BC898093B3039093B4038D
:1042E000A093B503B093B6032D813E814F815885CD
:1042F00069857A858B859C850E949436811104C0DE
:1043000091E09093AA036AC02D813E814F81588528
:1043100069857A858B859C850E949E35A5019401CF
:104320000E94F6389B01AC01C301B2010E949E3588
:104330006093BB037093BC038093BD039093BE0353
:104340004DC02D853E854F8558892093BB03309302
:10435000BC034093BD035093BE032093BF0330932F
:10436000C0034093C1035093C20329813A814B811A
:104370005C81CA01B9010E949F352D853E854F851C
:1043800058890E94F638A70196010E949F350E9425
:1043900095396093B3037093B4038093B5039093FE
:1043A000B6031CC032E03093AA0318C01092BB03BE
:1043B0001092BC031092BD031092BE038091B7030C
:1043C0009091B803A091B903B091BA038093B3035D
:1043D0009093B403A093B503B093B6031860109301
:1043E0000E0280913D03482F50E05A8B498B87E0A5
:1043F000849FF001859FF00D1124ED5EFC4F8091AC
:1044000098038483A091EF06B091F006BCAFABAFE8
:104410005E96BC91BAA3EBADFCADF78DFBA3ABAD43
:10442000BCAD9096BC91BCA3EBADFCADF1A1FDA3DE
:104430002091A6033091A7034091A8035091A903AE
:104440006AA17BA18B2F9F2F0E949E356EA77FA70D
:1044500088AB99AB20E030E0A9010E94943687FF39
:1044600004C01EA61FA618AA19AA2091AA032D8B64
:104470003091B3033E8B4091B4034F8B5091B50301
:10448000588F8091B603898F9091BB039A8FA0912A
:10449000BC03AB8FB091BD03BC8FE091BE03ED8F29
:1044A000F091BF03FEA32091C0032FA33091C1035D
:1044B00038A74091C20349A75091AB035AA78091F6
:1044C000AC038BA79091AD039CA7A091AE03ADA7C1
:1044D000B091B703BBABE091B803ECABF091B9037B
:1044E000FDAB2091BA032EAB3091AF0339834091DD
:1044F000B0034D835091B10359878091B2038D87EA
:104500002EA13FA148A559A56A8D7B8D8C8D9D8DCF
:104510000E949436811103C092E09AAB02C0A1E0E0
:10452000AAAB3AA02BA01CA10DA18EE3C82E83EC50
:10453000D82E8EE2E82E89E3F82E412C512C320140
:10454000CE8EDF8EE8A2F9A23D89313009F4F2C0A7
:10455000ABADBCAD313008F47BC0333009F020C1C5
:104560005A962D913D914D915C915D97C701B60191
:104570000E94F6384B015C012E893F89488D598D88
:1045800069817D8189859D850E949E359B01AC0155
:10459000C501B4010E94B63887FD31C02A8D3B8D1C
:1045A0004C8D5D8D6AA17BA18CA19DA10E949E3541
:1045B0009B01AC010E949F356B017C0129813D81EB
:1045C00049855D856E897F89888D998D0E949F358B
:1045D0009B01AC01C701B6010E949E366B017C01B4
:1045E000BE89B983EF89ED83F88DF987298D2D87F1
:1045F0003A8C2B8C1C8D0D8D31E03D8B51C120E010
:1046000030E040E05FE3C501B4010E94F6389B0151
:10461000AC0169817D8189859D850E949E35A701B8
:1046200096010E94F6389B01AC01632D722D812FFB
:10463000902F0E949E35362E272E182F092FA50168
:10464000940169817D8189859D850E949E356DC01B
:104650005A962D913D914D915C915D97C701B601A0
:104660000E94F6384B015C0120E030E040E05FE35F
:104670000E94F63829813D8149855D850E949F35DC
:10468000A70196010E94F6389B01AC01632D722DA3
:10469000812F902F0E949E35362E272E182F092FFE
:1046A000262F372F482F592F6A8D7B8D8C8D9D8D0E
:1046B0000E94B63818168CF52A8D3B8D4C8D5D8D79
:1046C0006AA17BA18CA19DA10E949E359B01AC019A
:1046D0000E949F356B017C0129813D8149855D8563
:1046E0006E897F89888D998D0E949F359B01AC01D1
:1046F000C701B6010E949E366B017C01BAA9BD8B31
:10470000EE89E983FF89FD83288D2987398D3D87CF
:104710003A8C2B8C1C8D0D8DC3C0A5019401698131
:104720007D8189859D850E949F3569837D838987E9
:104730009D87B6C02E893F89488D598DC701B60126
:104740000E94F6389B01AC01632D722D812F902FB2
:104750000E949E355B014C019B01AC016EA17FA1C3
:1047600088A599A50E94B63818160CF095C02EA100
:104770003FA148A559A5632D722D812F902F0E942E
:104780009E352E893F89488D598D0E949E366B013A
:104790007C013EA02FA018A509A542E04D8B80C04A
:1047A0005A962D913D914D915C915D97C701B6014F
:1047B0000E94F6384B015C0129813D8149855D8568
:1047C0000E94943687FF39C020E030E040E05FE38C
:1047D000C501B4010E94F6389B01AC0169817D815D
:1047E00089859D850E949E35A70196010E94F63815
:1047F0009B01AC01632D722D812F902F0E949E355D
:104800006FAB78AF89AF9AAF2AA53BA54CA55DA544
:104810000E94B63818168CF4A501940169817D8137
:1048200089859D850E949E3569837D8389879D87C3
:104830003FA828AC19AD0AAD33C02AA53BA54CA5AD
:104840005DA5632D722D812F902F0E949E359B01B7
:10485000AC010E949F356B017C0129813D81498516
:104860005D856BA97CA98DA99EA90E949F359B019E
:10487000AC01C701B6010E949E366B017C01BBA949
:10488000B983ECA9ED83FDA9F9872EA92D873AA458
:104890002BA41CA50DA504C03A2C2B2C182D092DDA
:1048A000A7019601C301B2010E949F352B013C0173
:1048B0002E8D3F8D48A159A10E94943687FF07C0D5
:1048C000A30192016E8D7F8D88A199A11CC02EA598
:1048D0003FA548A959A9632D722D812F902F0E94C1
:1048E000B638181684F52EE333EC4EE259E36E8D9C
:1048F0007F8D88A199A10E949F356E8F7F8F88A39D
:1049000099A3A30192010E949E356B017C01232D86
:10491000322D412F502F6AA57BA58CA59DA50E9405
:10492000943687FD11CE89819D81A985BD858093AF
:10493000AF039093B003A093B103B093B2033D894A
:104940003093AA030FC089819D81A985BD8580937D
:10495000AF039093B003A093B103B093B2034D891A
:104960004093AA03E091ED06F091EE069189911132
:1049700004C080910E0283FF3FC0ABADBCAD519629
:104980008C915197807349F19E96CD90DD90ED907A
:10499000FC90D1979923D1F02091C3033091C403A7
:1049A0004091C5035091C6036091AF037091B0036D
:1049B0008091B1039091B2030E94F6389B01AC0143
:1049C000C701B6010E94F6386B017C01C701B60130
:1049D0000E9465028093C7030AC0109217021092CA
:1049E00018021092190210921A021092C7038091B5
:1049F0000E02877F80930E0247E029893A89429F01
:104A0000F001439FF00D1124ED5EFC4FFA87E9871A
:104A10008091C70386832091A2033091A303409124
:104A2000A4035091A503632D722D812F902F0E9416
:104A3000F63869837A838B839C830E947D366B0171
:104A40007C0160919E0370919F038091A0039091DF
:104A5000A1030E947D364B015C01A70196010E94D3
:104A60009E350E9417376D837E838F839887ED81F3
:104A7000FE81A985BA85ED93FC93EF2B41F48091DB
:104A80000E0281FF04C0816080930E020EC120914E
:104A90009A0330919B0340919C0350919D03C30165
:104AA000B2010E949F352B013C0129813A814B8143
:104AB0005C81C501B4010E949E359B01AC01C3011C
:104AC000B2010E949E364B015C0120EC31EE44E6BF
:104AD0005EE40E94F6380E947D360E941737603DE2
:104AE00037E073078105910560F4A7E049895A8989
:104AF000A49FF001A59FF00D1124ED5EFC4F1582DF
:104B000053C0603ABFE07B078105910560F447E040
:104B100029893A89429FF001439FF00D1124ED5EEF
:104B2000FC4F51E011C06034AFE17A078105910577
:104B300068F447E029893A89429FF001439FF00DCC
:104B40001124ED5EFC4F52E055830CC027E0A9898B
:104B5000BA892A9FF0012B9FF00D1124ED5EFC4FC6
:104B600033E03583A7E049895A89A49FF001A59FC6
:104B7000F00D1124ED5EFC4F2581022E04C09695A8
:104B80008795779567950A94D2F74D815E8102C02B
:104B9000440F551F2A95E2F7518340836115710533
:104BA00051E08507910568F427E0A989BA892A9F11
:104BB000F0012B9FF00D1124ED5EFC4F7383628397
:104BC00004C04FEF5FEF538342838091EC068093E4
:104BD0003D038F5F863019F08093EC0602C010927F
:104BE000EC06E091EF06F091F006832D922DA12FB7
:104BF000B02F868F978FA0A3B1A3C0929E03D092AF
:104C00009F03E092A003F092A10329813A814B8196
:104C10005C81C701B6010E949E35A50194010E94E6
:104C2000F63860939A0370939B0380939C03909350
:104C30009D032091AB033091AC034091AD035091A3
:104C4000AE03632D722D812F902F0E949436811117
:104C5000A5C820E030E0A901632D722D812F902F8F
:104C60000E94B63890910E02181614F092FF04C0FC
:104C7000916090930E0219C01092F0061092EF0608
:104C80009091CA038091EB06891709F487C881E0E7
:104C9000890F803109F480E02091C803921302C08B
:104CA0008093C8038093CA0379C8EC960FB6F89432
:104CB000DEBF0FBECDBFDF91CF911F910F91FF904F
:104CC000EF90DF90CF90BF90AF909F908F907F90AC
:104CD0006F905F904F903F902F900895CF93DF9308
:104CE000C091EF06D091F0062097C9F0809199030A
:104CF0008160809399036091AF037091B0038091BC
:104D0000B1039091B2039B01AC010E94F6386A8B0B
:104D10007B8B8C8B9D8B1092F0061092EF06DF91AF
:104D2000CF9108952F923F924F925F926F927F9210
:104D30008F929F92AF92BF92CF92DF92EF92FF92AB
:104D40000F931F93CF93DF933090EB06311002C087
:104D5000D0E101C0D32DD150C091C803CD1709F4C3
:104D600016C1ED2EF12C22E3D29F800111240553B0
:104D70001C4FF801A688B788C08CD18C628D738DCA
:104D8000848D958D9B01AC010E949F35F801268D85
:104D9000378D40A151A10E94F6384B018C019B0137
:104DA000AC01B501C6010E94943687FD02C05401D2
:104DB000680182E38E9DF0018F9DF00D1124E55373
:104DC000FC4FC501D601828B938BA48BB58BD1117F
:104DD00001C0D0E1D150CD1307C08091CA03C813E0
:104DE00068C00E946E2665C022E32E9DC0012F9DE3
:104DF000900D11249C0125533C4F790192E3292EFB
:104E0000AD2EB12C2A9CC0012B9C900D1124FC01CD
:104E1000E553FC4F6F01D11101C0D0E1D150809119
:104E2000CA038D1302C00E946E262A9C80012B9C0F
:104E3000100D112405531C4FF80186889788A08C0B
:104E4000B18CA501940162897389848995890E9436
:104E50009436882359F1F801628D738D848D958D78
:104E60009B01AC010E949F35F801268D378D40A132
:104E700051A10E94F638F701228933894489558966
:104E80000E949F352B013C019B01AC01C501B4017F
:104E90000E94B638F80118162CF4428A538A648AA4
:104EA000758A04C0828A938AA48AB58A7601CD1352
:104EB000A7CFF2E3CF9F8001112405531C4FCF5F92
:104EC000C03109F4C0E0D091C80382E3282EC31595
:104ED00009F45BC0CC2ED12C2C9CC0012D9C900DD4
:104EE00011249C0125533C4F7901F80142885388D5
:104EF00064887588F90182889388A488B588A5019B
:104F00009401C301B2010E94943687FF24C0F801C6
:104F1000628D738D848D958D9B01AC010E949F35B0
:104F2000F801268D378D40A151A10E94F638A301CA
:104F300092010E949F352B013C019B01AC01C501F0
:104F4000B4010E94B638181634F4F701428A538A25
:104F5000648A758ADC2F2C9CF0012D9CF00D1124A5
:104F6000E553FC4F26893789408D518D62897389BD
:104F7000848995890E949436811101C0DC2FCF5F0E
:104F8000C03109F4C0E08701A2CFD093C803DF91FC
:104F9000CF911F910F91FF90EF90DF90CF90BF9036
:104FA000AF909F908F907F906F905F904F903F90C9
:104FB0002F9008952F923F924F925F926F927F921F
:104FC0008F929F92AF92BF92CF92DF92EF92FF9219
:104FD0000F931F93CF93DF93CDB7DEB7C454D1099E
:104FE0000FB6F894DEBF0FBECDBF3B010091EB06BC
:104FF000202E312C22E3229DA001239D500D11244F
:10500000BA0165537C4F7AAF69AFFB0111922A95C3
:10501000E9F7F3012085FB01218BF30144815581E0
:1050200066817781E9ADFAAD46A757A760AB71AB52
:1050300021FF40C02CE0E1EFF1E0DE015996019044
:105040000D922A95E1F78BAB9CAB2BE132E03EABA6
:105050002DABBE01635F7F4F23967FAF6EAF23976B
:10506000CE01499621969FAF8EAF2197E2E30E9F26
:10507000C00111249C0125533C4F3EAF2DAF685E0B
:105080007F4F7CAF6BAF78AF6FAB10E082E3829D58
:105090009001839D300D1124C90185539C4FFC0163
:1050A0003C962596FFAFEEAF25972C01F0E14F0E11
:1050B000511C3CC02CE0E1EFF6E0BFCFEDADFEAD02
:1050C0002193319341935193FEAFEDAF2596EEAD11
:1050D000FFAD2597C080D180E280F380C216D30651
:1050E000E406F50610F469017A012596EEADFFADF0
:1050F0002597C082D182E282F3820E944837A501BF
:1051000094010E949E36EFA9F8AD6193719381934B
:105110009193F8AFEFAB20E030E0A9010E94943604
:1051200087FD42C01F5F133009F44CC0EBA9FCA9F6
:105130006191719181919191FCABEBABEDA9FEA9CD
:1051400081909190A190B190FEABEDABA50194013F
:105150000E94F6380E94C3382396EEADFFAD239728
:1051600061937193819391932396FFAFEEAF239751
:105170002196EEADFFAD2197C190D190E190F190D5
:105180002196FFAFEEAF21976C197D098E099F091B
:105190009B01AC0197FF92CF22273327A901261B41
:1051A000370B480B590B8ACF112321F0113021F016
:1051B00080E803C080E201C080E4F2019081892B85
:1051C0008083B0CFCD28CE28CF2809F496C1CE0158
:1051D00085960E947C314B015C0122E3229DC00137
:1051E000239D900D11249C0125533C4F7901F90119
:1051F000868E978EA0A2B1A2BE016B5D7F4F83E326
:1052000092E00E942631F701628F738F848F958F11
:10521000BE016B5D7F4F87E292E00E942631F7016D
:1052200066A377A380A791A7118910FD12C0F3018F
:10523000208131814281538113FD06C0F70122A7ED
:1052400033A744A755A709C0C501B4010E94F63889
:10525000F70162A773A784A795A78091CA030817CF
:1052600011F011FF0DC082E3829DF001839DF00DCE
:105270001124E553FC4F128A138A148A158A54C0EC
:105280002DEF36E03CAB2BAB8E010F5F1F4FBE0105
:105290006F5C7F4F7AAB69ABC12CD12C76010DAB23
:1052A0001FABEBA9FCA981909190A190B190FCABB0
:1052B000EBABEBADFCAD4190519061907190FCAFC8
:1052C000EBAFA3019201C501B4010E94F6389B0126
:1052D000AC01C701B6010E949E356B017C01A5019E
:1052E0009401C301B2010E949E35F801619371934C
:1052F000819391938F0129A93AA96BAD7CAD2617B3
:10530000370779F62FEE3FEF4FE75FE3C701B601AE
:105310000E94B63818166CF482E3829DF001839DDA
:10532000F00D1124E553FC4F12A213A214A215A2F2
:1053300071C02FEE3FEF4FE75FEBC701B6010E9450
:10534000943687FF11C082E3829DF001839DF00DAA
:105350001124E553FC4F89E996E7A6E9BEE782A34D
:1053600093A3A4A3B5A356C08DA99FA90E947C3185
:105370006DA97FA983E392E00E9426314B015C0175
:10538000A701960160E070E080E89FE30E949E35EF
:1053900020E030E040E05FE30E94F6380E9495395B
:1053A0006B017C01209150023091510240915202D8
:1053B00050915302C501B4010E94F638A70196012D
:1053C0000E94F6384B015C01A701960160E070E095
:1053D00080E89FE30E949E359B01AC01C501B401AA
:1053E0000E949E366B017C0120E030E0A9010E9402
:1053F000943687FF03C0C12CD12C760182E3829DB5
:10540000F001839DF00D1124E553FC4FC2A2D3A2FD
:10541000E4A2F5A282E3829D8001839D100D1124F8
:1054200005531C4FF801818981FD69C089AD9AAD92
:105430000E94F41C6B017C018090090790900A0780
:10544000A0900B07B0900C07A50194010E94B638FC
:1054500018162CF4A5019401C501B40104C0A701DC
:105460009601C701B6010E94F638F801668B778B6A
:10547000808F918F82E3829D8001839D100D112486
:1054800005531C4FF80182A093A0A4A0B5A0A501CC
:10549000940166897789808D918D0E94B63818169F
:1054A0002CF4F801868A978AA08EB18EC0920907E3
:1054B000D0920A07E0920B07F0920C078CE0FE01F5
:1054C000B596ADEFB6E001900D928A95E1F78CE0CC
:1054D000FE013D96A1EFB6E001900D928A95E1F7AD
:1054E0008091C9038093EB068F5F803109F480E0DF
:1054F0008093C9030E94922602C080E001C081E02F
:10550000CC5BDF4F0FB6F894DEBF0FBECDBFDF918F
:10551000CF911F910F91FF90EF90DF90CF90BF90B0
:10552000AF909F908F907F906F905F904F903F9043
:105530002F900895CF93DF930E94543280E3E8E9DF
:10554000F3E0DF011D928A95E9F7CFEED2E083E226
:10555000FE0111928A95E9F71092F0061092EF067B
:105560001092120310923D0381E08093EC0610929A
:10557000EE020E9423328091ED028F878BB1837EF1
:105580009091EC02892B8BB98BB18F719091ED02C8
:10559000892B8BB9DF91CF910895CF93DF93C1E130
:1055A000D7E08991882319F00E943D02FACFDF915C
:1055B000CF910895CF93DF9321E5829FC0011124FD
:1055C000EC01DD5F40E550E0BE0181E197E00E9423
:1055D0004B1E892B69F4109211070E94020240E5CC
:1055E00050E061E177E0CE010E94881D80E001C0BB
:1055F00081E0DF91CF9108959FB7F8942091100733
:10560000822B809310079FBF08959FB7F894209135
:105610000F07822B80930F079FBF08959FB7F894C1
:1056200080930E079FBF08952FB7F89490910D07B0
:105630008095892380930D072FBF08959FB7F89415
:1056400020910D07822B80930D079FBF0895AF9285
:10565000BF92CF92DF92EF92FF920F931F93CF935F
:10566000DF93EC010FE312E05C018CE0A80EB11CAB
:10567000C990D990E990F99020E030E0A901C701E4
:10568000B6010E94B63818168CF0F80121913191BC
:10569000419151918F01C701B6010E94943687FD57
:1056A00005C0CA15DB0521F780E001C081E0DF916C
:1056B000CF911F910F91FF90EF90DF90CF90BF900F
:1056C000AF9008958F929F92AF92BF92CF92DF9248
:1056D000EF92FF920F931F93CF93DF93EB012BE198
:1056E000E22E22E0F22E8C016B018CE0C80ED11C60
:1056F0006991799189919991F70181909190A19007
:10570000B1907F010E944837A50194010E949E3606
:10571000F80161937193819391938F01CC15DD050D
:1057200039F7DF91CF911F910F91FF90EF90DF90AC
:10573000CF90BF90AF909F908F9008950E940202EB
:1057400010921602089596B19095892F877059F09E
:1057500091FF02C082E001C080E090FD816092FF75
:1057600003C08460089580E008951F920F920FB6E1
:105770000F9211242F933F934F935F936F937F93D7
:105780008F939F93AF93BF93CF93EF93FF930E9419
:10579000A32BC82F882389F080FD0E945F03C2FFDE
:1057A00005C080910D07826080930D07C1FF05C081
:1057B00080910D07886080930D07FF91EF91CF9145
:1057C000BF91AF919F918F917F916F915F914F9119
:1057D0003F912F910F900FBE0F901F901895109230
:1057E000F0019091600297FD03C090E29093F00168
:1057F000882331F09091F00180E289278093F001B5
:1058000008958F929F92AF92BF92CF92DF92EF92C4
:10581000FF920F931F93CF93DF93CDB7DEB72D97F2
:105820000FB6F894DEBF0FBECDBF6B017C01042F15
:1058300020E030E0A9010E94943687FF07C08DE286
:105840000E943D02F7FAF094F7F8F094102F12300E
:1058500060F020E030E048EC52E4C701B6010E945D
:10586000F6386B017C011250F2CF00FF0AC020E035
:1058700030E040E251E4C701B6010E94F6386B0106
:105880007C0120E030E040E05FE3C701B6010E9408
:105890009F350E94103710E03AE0832E912CA12C06
:1058A000B12C611571058105910591F0EE24E39409
:1058B000F12CEC0EFD1EE10EF11CA50194010E94DD
:1058C0001F3A605DF7016083B901CA011F5FE9CF2C
:1058D00080E3101748F4E1E0F0E0EC0FFD1FE10F6A
:1058E000F11D80831F5FF5CF101313C0FE01E10F80
:1058F000F11D80E381831F5F0CC0101303C08EE293
:105900000E943D02FE01E10FF11D80810E943D02D7
:1059100011501111F2CF2D960FB6F894DEBF0FBEC5
:10592000CDBFDF91CF911F910F91FF90EF90DF904E
:10593000CF90BF90AF909F908F900895209160027C
:1059400020FF08C02BE832E441E25DE30E94F63814
:1059500041E001C040E00C94012C2091600220FF46
:1059600008C02BE832E441E25DE30E94F63844E0EF
:1059700001C043E00C94012C0F931F93CF938C0133
:10598000C0E0F80161917191819191918F010E9424
:10599000AD2CC23019F08CE20E943D02CF5FC330C3
:1059A00081F7CF911F910F910895CF93DF938436A4
:1059B00030F06AE00E94FF39C0E3C90F03C0C0E0C5
:1059C0008A3030F06AE00E94FF39D0E3D90F01C07D
:1059D000D0E0805D0E943D02DD2319F08D2F0E94F2
:1059E0003D02CC2329F08C2FDF91CF910C943D0206
:1059F000DF91CF910895CF93DF93FC018491EF0164
:105A00002196882321F00E943D02FE01F7CFDF910D
:105A1000CF91089581E693E00C94FB2CCF93C82F8F
:105A20008AE693E00E94FB2C8C2F0E94D52CCF910C
:105A30000C940A2D811104C081E793E00C94FB2C97
:105A40000C940E2DCF93DF93C0E08C2F0E94DA2AA6
:105A500081110EC0109211078EE30E943D020E9438
:105A6000CD2A8AE30E943D0287E00E940E2D12C0DB
:105A700080911107882371F00E94C909D82F8EE305
:105A80000E943D020E94CD2A8AE30E943D028D2F92
:105A90000E941A2DCF5FC230C1F6DF91CF910895D9
:105AA000CF92DF92EF92FF92CF93DF93D82F6A01CC
:105AB0007B01C22F84E20E943D028D2F0E94D52CD3
:105AC0008DE30E943D024C2FC701B6010E94012CBC
:105AD000DF91CF91FF90EF90DF90CF900C940A2D43
:105AE000CF93DF93D82FC62F84E20E943D028D2FE3
:105AF0000E94D52C8DE30E943D028C2F0E94D52C54
:105B0000DF91CF910C940A2DEF92FF920F931F9388
:105B1000CF93DF9360914B0270E080E00E94702D84
:105B200060914E0270E081E00E94702D60914C0205
:105B300070E082E00E94702D60914D0270E083E081
:105B40000E94702D6091600262FB662760F970E030
:105B500084E00E94702D6091600266FB662760F908
:105B600070E085E00E94702D80916002082E000C8C
:105B7000990B692F661F6627661F70E086E00E94FA
:105B8000702D60914F0270E08AE00E94702D40916C
:105B9000500250915102609152027091530223E0E1
:105BA0008BE00E94502D409154025091550260911B
:105BB00056027091570223E08CE00E94502D6091B4
:105BC0006002617070E08DE00E94702D6091600253
:105BD00065FB662760F970E084E10E94702D60919A
:105BE000600263FB662760F970E085E10E94702D1A
:105BF000609160026295617070E086E10E94702D94
:105C00006091610270E087E10E94702D4091620214
:105C100050916302609164027091650223E088E113
:105C20000E94502D40916602509167026091680277
:105C30007091690223E089E10E94502D60916A020F
:105C400070916B028AE10E94702D40916C0250911C
:105C50006D0260916E0270916F0223E08BE10E94F1
:105C6000502D409158025091590260915A02709102
:105C70005B0220E08EE10E94502D40915C02509129
:105C80005D0260915E0270915F0220E08FE10E94F0
:105C9000502D609160026695617070E080E20E9414
:105CA000702DD4E6F12C0BE112E083E0E82EED0E2E
:105CB000CD2F82E0F81691F0E3E0FE16E9F0F1E076
:105CC000FF1631F0F80140815181628173811AC061
:105CD000F801448555856685778514C020E030E05D
:105CE00041E655E4F801608D718D828D938D0E949F
:105CF0009E36AB01BC0106C0F80144A155A166A1C6
:105D000077A1705823E08C2F0E94502D0C5F1F4FFD
:105D1000CF5FEC12CECFD65FF394DC3821F6DF9163
:105D2000CF911F910F91FF90EF9008958DE50E9404
:105D30003D020C940A2DCF93DF93CDB7DEB72C979D
:105D40000FB6F894DEBF0FBECDBF84E693E00E948D
:105D5000FB2C6DEF71E0CE0101960E94622BCE010B
:105D600001960E94BC2C8AE30E943D0280910F02A2
:105D70000E94D52C0E94962E2C960FB6F894DEBF6A
:105D80000FBECDBFDF91CF9108951F920F920FB636
:105D90000F9211242F933F934F935F936F937F93B1
:105DA0008F939F93AF93BF93EF93FF9380910A02DA
:105DB000813049F080910E07811105C00E945F0378
:105DC00081E00E940E2BFF91EF91BF91AF919F91C7
:105DD0008F917F916F915F914F913F912F910F9094
:105DE0000FBE0F901F90189593B19671809160022D
:105DF00086FD02C086E19827992349F091FB882708
:105E000080F992FD8260907119F08460089580E0BD
:105E100008952F923F924F925F926F927F928F924E
:105E20009F92AF92BF92CF92DF92EF92FF920F9329
:105E30001F93CF93DF93CDB7DEB7A1970FB6F8943A
:105E4000DEBF0FBECDBF90910B029111C4C18F8FE9
:105E5000FE013D9689E0DF011D928A95E9F786E013
:105E60008D8BEBE1F2E0FA8FE98F5F019E012A5EF4
:105E70003F4F490100E010E0C12CD12C76019F8DED
:105E8000892F90E09E8F8D8F802F002321F001308D
:105E900021F090E103C094E001C098E0D4019D930B
:105EA0004D01ED8DFE8D02C0F595E7958A95E2F7DF
:105EB000E0FF1BC020E030E040EC5FEBD5019496A2
:105EC0006D917D918D919C9197970E94F638362E19
:105ED000472E582E692EA70196010E94943687FD01
:105EE00004C0C32CD42CE52CF62C0F5F1F4FB4E05C
:105EF000AB0EB11C0330110539F6209066023090CC
:105F00006702409068025090690284E0A82EBB248A
:105F1000B39461EF71E0CE0101960E94622B8091F3
:105F20006102682E712CFE01319621EF31E03C8F29
:105F30002B8F39A328A3DE0156964D0180E090E017
:105F400000E010E0B701A60170582D8D3E8D082E9F
:105F500002C0359527950A94E2F720FF22C00F5F13
:105F6000A8A1B9A11D921D921D921C921397930195
:105F7000082E02C0359527950A94E2F720FF03C04A
:105F8000BB2019F007C0BB2029F0C082D182E28279
:105F9000F38204C04083518362837383D4012C91C4
:105FA000122B0196BFEF8B1A9B0A349628A139A1B8
:105FB0002C5F3F4F39A328A38330910531F6602F22
:105FC00070E080E090E00E9446370E9495399B0186
:105FD000AC0110931002C201B1010E94F6386D8726
:105FE0007E878F87988BBE01635F7F4FCE010196BE
:105FF0000E94DA2734E030930E020E94B01E0E9405
:10600000D234BB20E9F00E94F42EFE01769620E007
:1060100030E090E06191462F412359F0AC01022E0F
:1060200002C0559547950A94E2F740FF02C060957B
:1060300016232F5F3F4F2330310561F71093100275
:106040000E94B01E80910D07847339F110910D07E5
:1060500014FF03C086E00E940E2B15FF03C087E0EB
:106060000E940E2BB11007C00E94F42E9F8D892331
:1060700039F088E003C012FF03C089E00E940E2BB4
:1060800080910E07882329F00E945F030E94B61BAF
:10609000A2C084E00E94142B04C0812F8C7109F0EF
:1060A000B0CF0E949A2A00916A0210916B020115EA
:1060B000110549F0AFE9BFE01197F1F700C000000A
:1060C00001501109F4CFB1E0BB26C9F020E030E067
:1060D00040EA50E460916C0270916D0280916E0212
:1060E00090916F020E94F6386B017C012090620251
:1060F00030906302409064025090650210C0C090DE
:106100006C02D0906D02E0906E02F0906F022090D1
:106110006602309067024090680250906902AA942B
:10612000A110F7CEE0906102F12C80906C0290906B
:106130006D02A0906E02B0906F022401350177FAD3
:10614000709477F870948D8D9E8D002E02C0959579
:1061500087950A94E2F780FF2BC0C701002E02C08A
:10616000959587950A94E2F7E98DFA8D80FF0FC027
:1061700024A135A146A157A1C501B4010E949F35B4
:10618000A98DBA8D2D913D914D915C9106C02081D4
:10619000318142815381C301B2010E94F6380E94CD
:1061A000C338AB8DBC8D6D937D938D939C9313976A
:1061B0000F5F1F4FEB8DFC8D3496FC8FEB8F298D7D
:1061C0003A8D2C5F3F4F3A8F298F0330110509F02C
:1061D000BACF10920E02A1960FB6F894DEBF0FBE92
:1061E000CDBFDF91CF911F910F91FF90EF90DF9086
:1061F000CF90BF90AF909F908F907F906F905F9067
:106200004F903F902F900895EBE6F0E08081897EDB
:106210008083E8E6F0E080818E7F8083089584B1FA
:10622000897E84B985B1866185B98091600283FFDA
:106230000BC080916B00866180936B008091680039
:1062400081608093680008950C9404316F927F926E
:106250008F929F92AF92BF92CF92DF92EF92FF9276
:106260000F931F93CF93DF93EB018C015B018CE0C5
:10627000A80EB11C89E9682E96E7792E26E9822EB0
:106280003EE7932EC990D990E990F99020E030E054
:10629000A901C701B6010E9494368823B9F0A7016D
:1062A0009601F80160817181828193810E949E36FE
:1062B0006B017C01E894F7F89301A401C701B601D2
:1062C0000E94B638181614F0360147010C5F1F4FB4
:1062D000CA15DB05B9F6B301C401DF91CF911F9157
:1062E0000F91FF90EF90DF90CF90BF90AF909F9075
:1062F0008F907F906F9008954F925F926F927F92F0
:10630000AF92BF92CF92DF92EF92FF920F931F93C3
:10631000CF93DF93EC015C018CE0A80EB11C8E01E1
:10632000C12CD12C7601F80141905190619071906F
:106330008F0120E030E0A901C301B2010E94943630
:10634000882371F0A3019201C301B2010E94F638C3
:106350009B01AC01C701B6010E949F356B017C0116
:106360000A151B0501F7C701B6010E9495396B019B
:106370007C019B01AC0160E070E080E89FE30E943B
:106380009E362B013C01A3019201688179818A81AB
:106390009B810E94F6386993799389939993AC16FF
:1063A000BD0689F7C701B601DF91CF911F910F910B
:1063B000FF90EF90DF90CF90BF90AF907F906F9065
:1063C0005F904F9008951F93CF93DF93142F20E099
:1063D00030E040EA51E40E94F6380E947D360E9487
:1063E0001737EB012097D1F080910B02811116C075
:1063F000111103C00E94B61B06C00E947417809141
:106400000C0281FD0BC02FEF80E792E0215080400D
:106410009040E1F700C000002197E4CFDF91CF91D9
:106420001F910895E1EFF1E0A1EFB6E041915191A4
:10643000619171914D935D936D937D9381E0ED3FFB
:10644000F807A1F7089580914C02682F20914D0222
:10645000422F982F917080FD94E0822F817020FD53
:1064600080E261FD986041FD806462FD906142FDC3
:1064700080689093EC028093ED0208951F920F9232
:106480000FB60F9211248F939F938BB19091EC02D2
:106490009C71837E892B8BB915BC9F918F910F9036
:1064A0000FBE0F901F90189580916F008D7F809385
:1064B0006F0080918100887F8160809381001092BD
:1064C000EE0280914E0290910A028F3F39F42091A2
:1064D0000E07211103C0903881F402C0943069F096
:1064E00090E0009741F0EFE9FFE03197F1F700C04D
:1064F00000000197F6CF81E001C080E0909160023A
:1065000092FF02C091E08927882311F0289A08950C
:10651000289808951F920F920FB60F9211242F936F
:106520003F934F935F936F937F938F939F93AF931B
:10653000BF93EF93FF938091EE02811122C28BB142
:106540009091FE02907E8F71892B8BB98BB1837EE7
:106550009091FD02892B8BB98091FC0286BD82E06F
:1065600085BD81E08093EE02789480911003909134
:106570001103892B09F0BFC08091120390913D0354
:10658000981709F4A4C0E09112032E2F30E087E0A1
:10659000E89FF0011124ED5EFC4FF0931103E093AE
:1065A0001003828193819093890080938800808179
:1065B000918190930C0380930B03E48180910D03F0
:1065C0008E1761F1E0930D0382E1E89FF001112441
:1065D000E25CFC4FF0930F03E0930E0384859585F6
:1065E000A685B785B695A795979587958093F70269
:1065F0009093F802A093F902B093FA028093F30209
:106600009093F402A093F502B093F6028093EF0208
:106610009093F002A093F102B093F202A0910E03C6
:10662000B0910F0350969C9150978091ED0289276D
:106630008093FE0287E0829FF001839FF00D11247A
:10664000ED5EFC4F25814D915D916D917C9113978D
:10665000022E04C076956795579547950A94D2F710
:106660004093FF0250930003609301037093020371
:1066700014964D915D916D917C911797022E04C0F7
:1066800076956795579547950A94D2F740930303FB
:1066900050930403609305037093060318968D913D
:1066A0009D910D90BC91A02D04C0B695A79597958E
:1066B00087952A95D2F78093070390930803A093B8
:1066C0000903B0930A0386810E94020314C00E944A
:1066D0005432E0910E03F0910F038189882339F041
:1066E0001092B3008091B0008F778093B00084E067
:1066F0000E941E2B46C1809109028130B1F486B1FF
:1067000080729091F001891781F0109209028CE05B
:10671000E1EFF1E0ADEFB1E001900D928A95E1F784
:1067200080910D07806480930D071092FD024091C7
:10673000EF025091F0026091F1027091F2028091AB
:10674000FF0290910003A0910103B0910203840F16
:10675000951FA61FB71F8093EF029093F002A0939E
:10676000F102B093F202E0910E03F0910F03448521
:10677000558566857785481759076A077B0768F549
:1067800024E02093FD024485558566857785841B2A
:10679000950BA60BB70B8093EF029093F002A0939A
:1067A000F102B093F20220898091F1019091F201FF
:1067B000A091F301B091F40125FF04C00197A10954
:1067C000B10903C00196A11DB11D8093F101909301
:1067D000F201A093F301B093F4014091F3025091C0
:1067E000F4026091F5027091F6028091030390919A
:1067F0000403A0910503B0910603840F951FA61F03
:10680000B71F8093F3029093F402A093F502B09324
:10681000F6024485558566857785481759076A07C6
:106820007B0778F52091FD0228602093FD024485C6
:10683000558566857785841B950BA60BB70B8093D2
:10684000F3029093F402A093F502B093F60220892C
:106850008091F5019091F601A091F701B091F801B6
:1068600026FF04C00197A109B10903C00196A11D2B
:10687000B11D8093F5019093F601A093F701B093B9
:10688000F8014091F7025091F8026091F90270917D
:10689000FA028091070390910803A0910903B09137
:1068A0000A03840F951FA61FB71F8093F7029093CA
:1068B000F802A093F902B093FA02448555856685E3
:1068C0007785481759076A077B0778F52091FD02FD
:1068D00020612093FD024485558566857785841B5C
:1068E000950BA60BB70B8093F7029093F802A09339
:1068F000F902B093FA0220898091F9019091FA018E
:10690000A091FB01B091FC0127FF04C00197A109F0
:10691000B10903C00196A11DB11D8093F9019093A7
:10692000FA01A093FB01B093FC0180910A0284302C
:1069300039F49091FD028091100289238093FD0229
:1069400080910B0390910C03019790930C0380931B
:106950000B03892B69F4109211031092100380919C
:1069600012038F5F80931203863011F4109212038A
:106970009091FD028091EC0289278093FD02109294
:10698000EE02FF91EF91BF91AF919F918F917F9117
:106990006F915F914F913F912F910F900FBE0F908C
:1069A0001F9018958091600282FF02C0289A01C052
:1069B00028988091EC028093FD0280914B02880F11
:1069C000845081958093FC0280916F008260809357
:1069D0006F0008958F929F92AF92BF92CF92DF92F5
:1069E000EF92FF920F931F93CF93DF937C016B0184
:1069F000DC01CC91D0E0FE01EF5EF84F80818D325A
:106A000029F4EF012296818101E009C08B3219F04F
:106A1000CE5ED84F03C0EF012296818100E0912C19
:106A2000F0E010E020E030E0A9015E01E0EDE80FC9
:106A3000EA30D0F4FF5FF93098F491101150A5E0DE
:106A4000B0E00E94473ADC01CB01880F991FAA1FD2
:106A5000BB1F9C01AD012E0F311D411D511D0AC0F0
:106A6000911008C01F5F06C0EE3F41F4911006C0B0
:106A7000992493942196D5018C91D7CFFF2309F4C3
:106A80004FC0CA01B9010E9446374B015C0120E0AA
:106A900030E0A9010E949436882349F11F3F64F435
:106AA0002AE037ED43E25CE3C501B4010E94F63809
:106AB0004B015C011E5FF2CF1F3F59F42DEC3CEC03
:106AC0004CEC5DE3C501B4010E94F6384B015C015A
:106AD0000EC0112361F020E030E040E251E4C50136
:106AE000B4010E94F6384B015C011150F2CF002333
:106AF00051F0B7FAB094B7F8B094F6018082918261
:106B0000A282B38206C0D6018D929D92AD92BC92B4
:106B10001397C151D740C150F701C08381E001C034
:106B200080E0DF91CF911F910F91FF90EF90DF9068
:106B3000CF90BF90AF909F908F9008955058BB27F3
:106B4000AA270E94B6350C9450380E94173838F0A6
:106B50000E941E3820F039F49F3F19F426F40C945B
:106B6000ED370EF4E095E7FB0C94BE37E92F0E9459
:106B7000753858F3BA17620773078407950720F032
:106B800079F4A6F50C94AF380EF4E0950B2EBA2FDD
:106B9000A02D0B01B90190010C01CA01A001112423
:106BA000FF27591B99F0593F50F4503E68F11A16CF
:106BB000F040A22F232F342F4427585FF3CF469560
:106BC00037952795A795F0405395C9F77EF41F1682
:106BD000BA0B620B730B840BBAF09150A1F0FF0F4C
:106BE000BB1F661F771F881FC2F70EC0BA0F621F38
:106BF000731F841F48F4879577956795B795F79528
:106C00009E3F08F0B0CF9395880F08F09927EE0FBC
:106C10009795879508950E94173860F080E891E075
:106C200009F49EEF0E941E3828F040E851E071F40C
:106C30005EEF0CC00C94ED370C94AF38E92FE07880
:106C40000E94753840F3092E052AB1F3261737073D
:106C50004807590738F00E2E07F8E02569F0E025BF
:106C6000E0640AC0EF6307F8009407FADB01B9019A
:106C70009D01DC01CA01AD01EF930E94B5360E946F
:106C800050380E944E365F91552339F02BED3FE08E
:106C900049E450FD49EC0C949F350895DF93DD27BE
:106CA000B92FBF7740E85FE31616170648075B0762
:106CB00018F4D92F0E94BB389F938F937F936F93C3
:106CC0000E94D539EEE0F1E00E94F0370E94503882
:106CD0002F913F914F915F910E940939DD2351F02F
:106CE0009058A2EA2AED3FE049EC5FE3D0785D27B7
:106CF0000E94B635DF910C9450380E94973890F07E
:106D00009F3748F4911116F40C94B03860E070E0AD
:106D100080E89FE3089526F01B16611D711D811DFB
:106D20000C94C4370C94DF370E949A3708F481E042
:106D300008950E942738E3950C9461380E94B2367A
:106D40000C9450380E941E3858F00E94173840F0BA
:106D500029F45F3F29F00C94BE3751110C94B038E0
:106D60000C94ED370E94753868F39923B1F35523DD
:106D700091F3951B550BBB27AA276217730784074E
:106D800038F09F5F5F4F220F331F441FAA1FA9F3E4
:106D900035D00E2E3AF0E0E832D091505040E695D2
:106DA000001CCAF72BD0FE2F29D0660F771F881F33
:106DB000BB1F261737074807AB07B0E809F0BB0B26
:106DC000802DBF01FF2793585F4F3AF09E3F51053A
:106DD00078F00C94BE370C94B0385F3FE4F3983EE3
:106DE000D4F3869577956795B795F7959F5FC9F723
:106DF000880F911D9695879597F90895E1E0660FA4
:106E0000771F881FBB1F621773078407BA0720F01C
:106E1000621B730B840BBA0BEE1F88F7E095089585
:106E20000E9417376894B1110C94B03808950E94ED
:106E30007D3888F09F5798F0B92F9927B751B0F057
:106E4000E1F0660F771F881F991F1AF0BA95C9F7EE
:106E500014C0B13091F00E94AF38B1E008950C94A5
:106E6000AF38672F782F8827B85F39F0B93FCCF358
:106E7000869577956795B395D9F73EF4909580956B
:106E8000709561957F4F8F4F9F4F0895E89409C08B
:106E900097FB3EF490958095709561957F4F8F4F4D
:106EA0009F4F9923A9F0F92F96E9BB279395F69563
:106EB000879577956795B795F111F8CFFAF4BB0FE1
:106EC00011F460FF1BC06F5F7F4F8F4F9F4F16C045
:106ED000882311F096E911C0772321F09EE8872FCF
:106EE000762F05C0662371F096E8862F70E060E08B
:106EF0002AF09A95660F771F881FDAF7880F969504
:106F0000879597F908950E94973890F09F3748F435
:106F1000911116F00C94B03860E070E080E89FEBBF
:106F2000089526F41B16611D711D811D0C94C43734
:106F30000C94DF37990F0008550FAA0BE0E8FEEF1D
:106F400016161706E807F907C0F012161306E4072D
:106F5000F50798F0621B730B840B950B39F40A2626
:106F600061F0232B242B252B21F408950A2609F404
:106F7000A140A6958FEF811D811D089597F99F6708
:106F800080E870E060E00895882371F4772321F0B1
:106F90009850872B762F07C0662311F499270DC0D0
:106FA0009051862B70E060E02AF09A95660F771F6B
:106FB000881FDAF7880F9695879597F908959F3F70
:106FC00031F0915020F4879577956795B795880FA4
:106FD000911D9695879597F908959FEF80EC0895F8
:106FE000DF93CF931F930F93FF92EF92DF927B017A
:106FF0008C01689406C0DA2EEF010E940939FE0167
:10700000E894A5912591359145915591A6F3EF010D
:107010000E94B635FE019701A801DA9469F7DF9066
:10702000EF90FF900F911F91CF91DF910895002471
:107030000A941616170618060906089500240A94DD
:10704000121613061406050608950C94ED370E94D7
:107050007D38D8F3E894E0E0BB279F57F0F02AEDA5
:107060003FE049EC06C0EE0FBB0F661F771F881F7D
:1070700028F0B23A62077307840728F0B25A620B0D
:10708000730B840BE3959A9572F7803830F49A95D8
:10709000BB0F661F771F881FD2F790480C94E1370B
:1070A000092E0394000C11F4882352F0BB0F40F416
:1070B000BF2B11F460FF04C06F5F7F4F8F4F9F4F56
:1070C0000895EF93E0FF07C0A2EA2AED3FE049EC04
:1070D0005FEB0E94B6350E9450380F90039401FC7C
:1070E0009058EBE3F1E00C94EB3957FD9058440FC6
:1070F000551F59F05F3F71F04795880F97FB991F17
:1071000061F09F3F79F087950895121613061406D3
:10711000551FF2CF4695F1DF08C016161706180660
:10712000991FF1CF869571056105089408950E9415
:107130007D38A0F0BEE7B91788F4BB279F3860F40C
:107140001616B11D672F782F8827985FF7CF869581
:1071500077956795B11D93959639C8F30895E8948E
:10716000BB2766277727CB0197F908950E949A37A6
:1071700008F48FEF08959B01AC0160E070E080E8B7
:107180009FE30C949E360E947D3858F19E5760F123
:107190009851A0F0E9F0983020F5092E9927660F54
:1071A000771F881F991F0A94D1F712C0062E672FE8
:1071B000782F8827985F11F4000C07C0993FB4F32B
:1071C0008695779567959395D9F7611D711D811DFA
:1071D0003EF490958095709561957F4F8F4F9F4FAE
:1071E000089568940C94B0380C94AF380E94093913
:1071F0000C9450380E94173838F00E941E3820F046
:10720000952311F00C94BE370C94ED3711240C9497
:10721000B0380E94753870F3959FC1F3950F50E018
:10722000551F629FF001729FBB27F00DB11D639F38
:10723000AA27F00DB11DAA1F649F6627B00DA11DDE
:10724000661F829F2227B00DA11D621F739FB00D84
:10725000A11D621F839FA00D611D221F749F3327F4
:10726000A00D611D231F849F600D211D822F762F8D
:107270006A2F11249F5750409AF0F1F088234AF06A
:10728000EE0FFF1FBB1F661F771F881F91505040D6
:10729000A9F79E3F510580F00C94BE370C94B0388E
:1072A0005F3FE4F3983ED4F3869577956795B7955D
:1072B000F795E7959F5FC1F7FE2B880F911D969577
:1072C000879597F908950E947D38E8F09E37E8F099
:1072D0009639B8F49E3848F4672F782F8827985F3E
:1072E000F9CF86957795679593959539D0F3B62F15
:1072F000B1706B0F711D811D20F48795779567958F
:1073000093950C94C4370C94DF370C94B0389F934A
:107310000E9427380F9007FCEE5F0C94613819F437
:1073200016F40C94ED370C94DF370E947D38B8F3D7
:107330009923C9F3B6F39F57550B87FF0E94E43991
:107340000024A0E640EA900180585695979528F4CD
:10735000805C660F771F881F20F0261737074807C5
:1073600030F4621B730B840B202931294A2BA6951C
:1073700017940794202531254A2758F7660F771F61
:10738000881F20F026173707480730F4620B730B6D
:10739000840B200D311D411DA09581F7B901842F6B
:1073A0009158880F9695879508959B01AC010C9490
:1073B000F6380E94973830F09F3710F40C94B038AC
:1073C0000C94C4370C94DF3791505040660F771FF0
:1073D000881FD2F708959F938F937F936F93FF93A6
:1073E000EF939B01AC010E94F638EF91FF910E9450
:1073F000F0372F913F914F915F910C94F638991B84
:1074000079E004C0991F961708F0961B881F7A959B
:10741000C9F780950895AA1BBB1B51E107C0AA1F9D
:10742000BB1FA617B70710F0A61BB70B881F991F25
:107430005A95A9F780959095BC01CD010895A1E2D8
:107440001A2EAA1BBB1BFD010DC0AA1FBB1FEE1FDE
:10745000FF1FA217B307E407F50720F0A21BB30B29
:10746000E40BF50B661F771F881F991F1A9469F7A5
:1074700060957095809590959B01AC01BD01CF0101
:107480000895EE0FFF1F0590F491E02D09940E94DE
:10749000523AA59F900DB49F900DA49F800D911D11
:1074A00011240895A29FB001B39FC001A39F700D46
:1074B000811D1124911DB29F700D811D1124911DFC
:1074C0000895FB01DC0104C08D910190801921F425
:1074D00041505040C8F7881B990B0895F894FFCF8E
:00000001FF
